:100000007EEF00F00000000000EF00F000000000B4
:0A0010000000000000000000F3D71C
:10001C001AC016F01BC017F0000E186E196E010EE8
:04002C00156E12003B
:10003000220E0C6E086A096A0A6A0B6A0C06D8B4AA
:100040001FD0D8900B320A32093208320332023202
:1000500001320032D8A0F2D70C06D8B409D004502F
:1000600008260550092206500A2207500B22EAD71B
:10007000045008260550092206500A2207500B2278
:0200800012006C
:10008200155205E1010E1A6E000E1B6EC6DF16C078
:1000920000F017C001F018C002F019C003F06D0E95
:1000A200046E4E0E056EC60E066E410E076EBFDF63
:1000B200390E0024056E300E0120066E000E02205D
:1000C200076E000E0320086E07C000F008C001F0A2
:1000D200000E08BEFF0E026E036EFF0E00167F0EAC
:1000E2000116000E0216031600C016F001C017F02A
:0A00F20002C018F003C019F012005C
:1000FC000F0EC112936A816A0A0E1A6E000E1B6EE5
:10010C0087DFB9DF070E046E00C002F001C003F0F8
:10011C00045005E003320232039EFF0FFAD702C0EF
:10012C0081FF0B0E0B6E260E0C6E5D0E0D6E0D2EE2
:10013C00FED70C2EFCD70B2EFAD700000000E1D70F
:02014C00FFD7DB
:020000040030CA
:0D000100021F1EFF8181FF0FC00FE00F40A6
:00000001FF
