:0400000027EF00F0F6
:10000800F2A40AD08CB002D0838001D08390CF0EA6
:0A001800D76E2C0ED66EF294110084
:08002200F28EF28CD08E120068
:08002A00F294F184F28A120045
:10003200040ED56ECF0ED76E2C0ED66EF294D58EE0
:020042001200AA
:0A0044000F0EC112956A836A1200C4
:10004E00FADFF0DFE7DFEADF8CBC02D0838C01D071
:10005E00839C0B0E0B6E260E0C6E5D0E0D6E0D2E12
:10006E00FED70C2EFCD70B2EFAD700000000ECD7D3
:02007E00FFD7AA
:020000040030CA
:0D000100021F1EFF8181FF0FC00FE00F40A6
:00000001FF
