:10000000BBEF01F00000000000EF00F00000000076
:0A0010000000000000000000F3D71C
:10001C003D50030AD8B4838A3D50040AD8B4838C6B
:02002C001200C0
:10002E00F250026EF29E0500FF6A0150FE6E005005
:08003E00FD6E02BEF28E1200FD
:10004600C7B409D01F0EC514016E0150000A03E1A2
:0A005600010E006E01D0006A1200D6
:100060009E9635C0C9FF15C036F016C037F017C0D0
:1000700038F018C039F0C7A41FD01550161017104B
:10008000181019E036503710381039100EE12FC013
:10009000E1FF30C0E2FF040EE66E2DC000F02EC07E
:1000A00001F0C5DF010E006E37D0010E365E000E86
:1000B000375A385A395ADFD715C036F016C037F0DC
:1000C00017C038F018C039F09EB61FD01550161062
:1000D0001710181019E036503710381039100EE18B
:1000E0002FC0E1FF30C0E2FF040EE66E2DC000F02D
:1000F0002EC001F09CDF010E006E0ED0010E365EA8
:10010000000E375A385A395ADFD7C5BC02D0006AB8
:0A01100003D0C584020E006E120039
:04011A00C584120086
:10011E00020E0B6E040E0C6EBA0E0D6E0D2EFED769
:0C012E000C2EFCD70B2EFAD7000012009C
:10013A0015C035F016C036F017C037F018C038F0C1
:10014A00C582C5A21DD0155016101710181017E039
:10015A0035503610371038100CE12FC0E1FF30C08F
:10016A00E2FF060EE66E2DC000F02EC001F05ADF47
:10017A0007D0010E355E000E365A375A385AE1D783
:02018A00120061
:10018C0035C015F036C016F037C017F038C018F06F
:10019C0039C02DF03AC02EF03BC02FF03CC030F0EF
:0201AC0012003F
:1001AE00460E256E000E266E000E276E000E286E71
:1001BE00240E296E020E2A6E000E2B6E000E2C6E71
:1001CE003A0E216E010E226E000E236E000E246E6C
:1001DE00AC0E196E020E1A6E350E1B6E000E1C6ED4
:1001EE00600E1D6E000E1E6E350E1F6E000E206E02
:1001FE001A0E316E010E326E000E336E000E346E1C
:10020E00949894968B988B9694889486C79EC79C48
:06021E00380EC66E12004E
:1002240015C037F016C038F017C039F018C03AF0CE
:10023400356A366A3650120802E135508E0807E3F3
:1002440000DF005201E003D0354A362AF3D7120EFC
:10025400365C02E18F0E355C03E37B0E006E23D027
:10026400C580C5A01FD0155016101710181019E01E
:100274003750381039103A100EE12FC0E1FF30C06A
:10028400E2FF050EE66E2DC000F02EC001F0CDDEBB
:10029400010E006E08D0010E375E000E385A395A2E
:0802A4003A5ADFD7006A12008C
:1002AC0015C037F016C038F017C039F018C03AF046
:1002BC009E96C5869EB61DD0155016101710181098
:1002CC0017E03750381039103A100CE12FC0E1FF0D
:1002DC0030C0E2FF030EE66E2DC000F02EC001F020
:1002EC00A0DE07D0010E375E000E385A395A3A5A42
:1002FC00E1D7C9CF36F03550000A02E1C58A01D0EA
:10030C00C59A9E96C58815C037F016C038F017C030
:10031C0039F018C03AF09EB61DD0155016101710B3
:10032C00181017E03750381039103A100CE12FC064
:10033C00E1FF30C0E2FF030EE66E2DC000F02EC0D0
:10034C0001F06FDE07D0010E375E000E385A395AB5
:0A035C003A5AE1D736C000F0120053
:100366000900F5CFE6FF0006FBE10106F9E1120000
:1003760002EC02F00F0EC112936A956A8C6A8A6AC1
:10038600140EC86E11DFE80E356E030E366E000EC3
:10039600376E386E1C0E396E000E3A6E3D0E3B6E91
:1003A600000E3C6EF0DE3BDFA20E356E56DE020E10
:1003B600356E53DE0F0E356E50DEACDEADDE2FDF52
:1003C600A20E356E4ADE020E356E47DEB3DEA30E92
:1003D600356E43DE356A67DF00C08AFF9BDE290E75
:1003E6000B6E960E0C6E7F0E0D6E0D2EFED70C2E1E
:0A03F600FCD70B2EFAD7C7D7FFD7AC
:1004040010EE15F0040E006E010E016E000EF66E75
:0E041400040EF76E000EF86EB3EC01F012004D
:0404000000000000F8
:020000040030CA
:0D000100021F1EFF8181FF0FC00FE00F40A6
:00000001FF
