:100000000EEF00F00000000000EF00F00000000024
:0A0010000000000000000000F3D71C
:10001C00156A0F0EC11293808180956A836A81B034
:10002C0013D01550000A10E18CB002D0838001D09F
:10003C008390010E156E680E0C6EE40E0D6E0D2E77
:10004C00FED70C2EFCD7000081A00DD01550010A54
:10005C000AE1156A680E0C6EE40E0D6E0D2EFED7BD
:0A006C000C2EFCD70000DBD7FFD7F5
:020000040030CA
:0D000100021F1EFF8181FF0FC00FE00F40A6
:00000001FF
