:04000000B0EF01F06C
:1000080000C017F001C016F002C015F09EA43CD045
:100018001850000A1BE1BECF23F0BFCF24F023C045
:1000280000F024C001F001320032019E013200329A
:10003800019E01320032019E01320032019E00C051
:1000480027F001C028F0010E186E1DD01850010AC3
:100058001AE1BECF23F0BFCF24F023C000F024C0A4
:1000680001F001320032019E01320032019E01325C
:100078000032019E01320032019E00C025F001C00D
:1000880026F0186A9D949E9417C000F016C001F0DF
:0600980015C002F011008A
:10009E000F0E0C6E470E0D6E0D2EFED70C2EFCD7CE
:0600AE000000000012003A
:0600B40000000000120034
:0A00BA00210E0D6E0D2EFED7120070
:1000C4003BBE02D08C9E01D08C8E3BBC02D08C9C5B
:1000D40001D08C8C3BBA02D08C9A01D08C8A3BB86C
:1000E40002D08C9801D08C8822B002D08D8401D0AB
:1000F4008D948D82DDDF8D923BB602D08C9E01D033
:100104008C8E3BB402D08C9C01D08C8C3BB202D040
:100114008C9A01D08C8A3BB002D08C9801D08C8808
:1001240022B002D08D8401D08D948D82C1DF8D9256
:0C01340022A002D0B2DF01D0BEDF12001A
:0C01400022903AC03BF0BEDF228012008B
:10014C00086A096A100E0C6E013408360936045020
:10015C00085E0550D8A0053C095ED8B007D0045005
:10016C0008260550D8B0053C0926D8900036013633
:06017C000C2EEAD7120070
:10018200376A050E375C0AE237503524E16E000EFD
:100192003620E26E200EE66E372AF3D7375035242A
:1001A200E16E000E3620E26EE66A370637503524DD
:1001B200386E000E3620396E0A0E046E000E056E81
:1001C20033C000F034C001F0C0DF08C000F009C045
:1001D20001F0300E002638C0E1FF39C0E2FF00C056
:1001E200E6FF0A0E046E000E056E33C000F034C046
:1001F20001F0ABDF00C033F001C034F0000E011893
:1002020002E1000E001801E102D03706CFD712003A
:08021200F28EF28CD08E120076
:0C021A000F0EC112936A948482841200BB
:100226000900F5CFE6FF0006FBE10106F9E1120041
:100236000FD0800E336E19D0C00E336E16D0940ECA
:10024600336E13D0D40E336E10D0800E336E0DD0B5
:100256003350010AEEE03350020AEEE03350030A4F
:10026600EEE03350040AEEE0F0D73404006E33506B
:10027600002600C033F000C03BF021DF2290376A31
:1002860037503524E96E000E3620EA6EEE520BE04A
:1002960037503524E96E000E3620EA6EEECF3AF07E
:0A02A6004CDF372AEDD7228012004A
:1002B000969296949598959A959C959E8D928D94EC
:1002C0008C9E8C9C8C9A8C98EADEE9DEE8DE8C8A27
:1002D0008C888D82EFDE8D92E2DE8D82EBDE8D9258
:1002E000DEDE8D82E7DE8D92DADE8C988D82E2DEB4
:1002F0008D92D5DE8D82DEDE8D928C9A8C8E8D82F3
:10030000D9DE8D92CCDE8C9E8C888D82D3DE8D9250
:100310008C988D82CFDE8D92C2DE8D82CBDE8D9267
:100320008C888D82C7DE8D92BADE8C988D82C2DE7B
:100330008D928C8E8C8C8C8A8C888D82BBDE8D927B
:06034000AEDE2280120077
:10034600BD6A070EBD6E9E949F849D849484D00ED4
:0A035600CD6ECF6ACE6ACD80120092
:10036000186A500E196E650E1A6E720E1B6E690EAB
:100370001C6E6F0E1D6E640E1E6E3A0E1F6E200EEA
:10038000206E216A4ADF45DFDEDF92DF010E3B6E21
:1003900099DE0C0E3B6E96DE010E336E010E346E4E
:1003A000190E356E000E366E46DF9DB41FD02750F5
:1003B000255C336E28502658346E290E356E000E9B
:1003C000366EDFDE010E336E0A0E346E290E356E88
:1003D000000E366E30DF340E0C6EF10E0D6E0D2EEB
:1003E000FED70C2EFCD7000000009D84DED7FFD77F
:020000040030CA
:0D000100021F1EFF8181FF0FC00FE00F40A6
:00000001FF
