:1000000058EF01F00000000000EF00F000000000D9
:0A0010000000000000000000F3D71C
:0A001C00210E0D6E0D2EFED712000E
:100026000F0E0C6E470E0D6E0D2EFED70C2EFCD746
:06003600000000001200B2
:06003C00000000001200AC
:100042002EBE02D08C9E01D08C8E2EBC02D08C9CF7
:1000520001D08C8C2EBA02D08C9A01D08C8A2EB808
:1000620002D08C9801D08C881BB002D08D8401D034
:100072008D948D82E2DF8D922EB602D08C9E01D0BD
:100082008C8E2EB402D08C9C01D08C8C2EB202D0DD
:100092008C9A01D08C8A2EB002D08C9801D08C8898
:1000A2001BB002D08D8401D08D948D82C6DF8D92DB
:0C00B2001BA002D0B7DF01D0B0DF1200AD
:1000BE00086A096A100E0C6E0134083609360450AF
:1000CE00085E0550D8A0053C095ED8B007D0045094
:1000DE0008260550D8B0053C0926D89000360136C2
:0600EE000C2EEAD71200FF
:0C00F4001B902DC02EF0A3DF1B8012001B
:10010000969296949598959A959C959E8D928D949D
:100110008C9E8C9C8C9A8C9886DF85DF84DF8C8A01
:100120008C888D828BDF8D927EDF8D8287DF8D9232
:100130007ADF8D8283DF8D9276DF8C988D827EDFF1
:100140008D9271DF8D827ADF8D928C9A8C8E8D826A
:1001500075DF8D9268DF8C9E8C888D826FDF8D922B
:100160008C988D826BDF8D925EDF8D8267DF8D9242
:100170008C888D8263DF8D9256DF8C988D825EDF56
:100180008D928C8E8C8C8C8A8C888D8257DF8D9290
:060190004ADF1B80120093
:100196000900F5CFE6FF0006FBE10106F9E11200D2
:1001A6002A6A050E2A5C0AE22A502824E16E000E0D
:1001B6002920E26E200EE66E2A2AF3D72A5028243A
:1001C600E16E000E2920E26EE66A2A062A502824ED
:1001D6002B6E000E29202C6E0A0E046E000E056E84
:1001E60026C000F027C001F067DF08C000F009C094
:1001F60001F0300E00262BC0E1FF2CC0E2FF00C04C
:10020600E6FF0A0E046E000E056E26C000F027C03B
:1002160001F052DF00C026F001C027F0000E0118E1
:1002260002E1000E001801E102D02A06CFD7120023
:100236000FD0800E266E19D0C00E266E16D0940EE4
:10024600266E13D0D40E266E10D0800E266E0DD0DC
:100256002650010AEEE02650020AEEE02650030A76
:10026600EEE02650040AEEE0F0D72704006E265092
:10027600002600C026F000C02EF0E0DE1B902A6AA1
:100286002A502824E96E000E2920EA6EEE520BE071
:100296002A502824E96E000E2920EA6EEECF2DF0B2
:0A02A60026DF2A2AEDD71B80120084
:1002B000410E156E440E166E430E176E3A0E186EF2
:1002C000200E196E1A6A80809280010EC26E0E0E88
:1002D000C16EAA0EC06E14DF010E2E6EB2DE0C0EC1
:1002E0002E6EAFDE010E266E010E276E150E286EE5
:1002F000000E296EA0DFC282C2A201D0FDD7C4CFFA
:1003000027F0266AC3CF00F0000E016E00502612BF
:10031000015027121C0E286E000E296E44DF010EBC
:10032000266E080E276E1C0E286E000E296E83DFC7
:10033000340E0C6EF10E0D6E0D2EFED70C2EFCD76A
:0803400000000000D8D7FFD730
:020000040030CA
:0D000100021F1EFF8181FF0FC00FE00F40A6
:00000001FF
