:100000000EEF00F00000000000EF00F00000000024
:0A0010000000000000000000F3D71C
:10001C000F0EC112936A816A016A030E015C16E22B
:10002C008180410E0C6EEE0E0D6E0D2EFED70C2E39
:10003C00FCD700008190410E0C6EEE0E0D6E0D2E55
:10004C00FED70C2EFCD70000012AE7D7030E0B6E4F
:10005C008A0E0C6E550E0D6E0D2EFED70C2EFCD787
:0C006C000B2EFAD700000000D7D7FFD7FA
:020000040030CA
:0D000100021F1EFF8181FF0FC00FE00F40A6
:00000001FF
