:1000000027EF02F00000000000EF00F00000000009
:0A0010000000000000000000F3D71C
:10001C000F0E0C6E470E0D6E0D2EFED70C2EFCD750
:06002C00000000001200BC
:0A003200210E0D6E0D2EFED71200F8
:06003C00000000001200AC
:0E004200026A016A006A086A036A000E120070
:1000500033BE02D08C9E01D08C8E33BC02D08C9CDF
:1000600001D08C8C33BA02D08C9A01D08C8A33B8F0
:1000700002D08C9801D08C881CB002D08D8401D025
:100080008D948D82DBDF8D9233B602D08C9E01D0B1
:100090008C8E33B402D08C9C01D08C8C33B202D0C5
:1000A0008C9A01D08C8A33B002D08C9801D08C8885
:1000B0001CB002D08D8401D08D948D82BFDF8D92D3
:0C00C0001CA002D0ABDF01D0B4DF1200A6
:0800CC000AAE029E000E1200B4
:1000D4000B840BAE75EF00F0010E036E026A016A29
:0A00E400006A0A360232FF0E120015
:0C00EE001C9032C033F0ADDF1C8012000B
:0C00FA000E0E0D6E0D2EFED70000120041
:100106000C6A0E6A0250D8A49CEF00F001C002F0FF
:1001160000C001F0006A0E860250D8A49CEF00F0E1
:1001260001C002F0016A0E960E880250D8B4AEEFF6
:1001360000F00E50035ED8A4D8A0B3EF00F0D8901C
:1001460002BEB8EF00F0003601360236032EA3EFEA
:1001560000F0B3EF00F0010E0C6E70DFBBEF00F0A5
:10016600020E0C6EB4DFBBEF00F0040E0C6EABDFBC
:02017600120075
:100178000B800BAEC8EF00F0026A0AAEFF0E026EEB
:0C018800016E006E0A360232FF0E1200FB
:100194000900F5CFE6FF0006FBE10106F9E11200D4
:1001A400969296949598959A959C959E8D928D94F9
:1001B4008C9E8C9C8C9A8C982FDF2EDF2DDF8C8A62
:1001C4008C888D8239DF8D9227DF8D8235DF8D9289
:1001D40023DF8D8231DF8D921FDF8C988D822CDF9F
:1001E4008D921ADF8D8228DF8D928C9A8C8E8D826F
:1001F40023DF8D9211DF8C9E8C888D821DDF8D9282
:100204008C988D8219DF8D9207DF8D8215DF8D9298
:100214008C888D8211DF8D92FFDE8C988D820CDFAD
:100224008D928C8E8C8C8C8A8C888D8205DF8D923D
:06023400F3DE1C80120045
:10023A000FD0800E2D6E19D0C00E2D6E16D0940ED2
:10024A002D6E13D0D40E2D6E10D0800E2D6E0DD0C3
:10025A002D50010AEEE02D50020AEEE02D50030A5D
:10026A00EEE02D50040AEEE0F0D72E04006E2D5079
:10027A00002600C02DF000C033F0E5DE1C90316A84
:10028A0031502F24E96E000E3020EA6EEE520BE058
:10029A0031502F24E96E000E3020EA6EEECF32F094
:0A02AA0021DF312AEDD71C8012007D
:1002B4000B6A0C6A0A6A0350D8B4A4EF01F0028EE8
:1002C4008E0E035E03BE6CEF01F0D8B46CEF01F048
:1002D400A8EF01F0036C080E035CD8A083EF01F0D3
:1002E400036E013602C001F0026A080E035CD8A056
:1002F40083EF01F00136016A0350D8A4D8908DEF42
:1003040001F00350D8B48DEF01F0D89002320132DD
:10031400032E87EF01F00BBC01A09AEF01F0D8A0E7
:100324009AEF01F0012AD8B4022A02BEB7EF01F015
:100334000AAEBCEF01F0021E011E012AD8B4022A43
:10034400BCEF01F0026A016ABCEF01F00B800BAE56
:10035400C0EF01F0026A0AAEC0EF01F0FF0E026EB8
:10036400016E0A360232C0EF01F0010E0C6E02DF9C
:10037400C2EF01F0000E0C6EC2EF01F0FF0E0C6E26
:0A0384000150006E0250016E1200DD
:10038E00086A096A100E0C6E0134083609360450DC
:10039E00085E0550D8A0053C095ED8B007D00450C1
:1003AE0008260550D8B0053C0926D89000360136EF
:0603BE000C2EEAD712002C
:1003C4000050086E0150006E016A026A036A0B6AEB
:1003D4000C6A960E036E0A6A00C001F008C000F0B1
:0803E400086A026A8EDE1200B5
:1003EC00FF0E1D6EFF0E1E6EFF0E1F6EFF0E206E9B
:1003FC00C26A1B1C006E0050C116070EC012C08EC4
:04040C00C280120098
:10041000C26A1B1C006E0050C116070EC012C08EAF
:100420002DC000F000360090003600900050C2123F
:10043000C28063DEC282C2A201D0FDD7C4CF01F068
:0E044000006AC3500012000E0112C29012009A
:10044E009FEC02F092800D0EC16EA5DE010E336E92
:10045E00F8DD0C0E336EF5DD010E2D6E010E2E6ED7
:10046E00150E2F6E000E306EE1DEB9DF010E2D6E11
:10047E00C8DFA1DF18DF00C02BF001C02CF0E80EA2
:10048E00046E030E056E2BC000F02CC001F078DF59
:10049E00300E002600C021F0640E046E000E056EB4
:1004AE002BC000F02CC001F06BDF0A0E046E000EA4
:1004BE00056E66DF08C000F009C001F0300E0024A2
:1004CE00226E2E0E236E0A0E046E000E056E2BC0CB
:1004DE0000F02CC001F054DF0A0E046E000E056E03
:1004EE004FDF08C000F009C001F0300E0024246E6A
:1004FE000A0E046E000E056E2BC000F02CC001F02B
:10050E003FDF08C000F009C001F0300E0024256E58
:10051E00266A010E2D6E060E2E6E210E2F6E000E09
:08052E00306E84DEA3D7FFD775
:10053E0010EE15F0070E006E010E016E360EF66E01
:0E054E00050EF76E000EF86ECAEC00F01200FB
:06053600414443313A008C
:01053C00308E
:020000040030CA
:0D000100021F1EFF8181FF0FC00FE00F40A6
:00000001FF
