:1000000084EF01F00000000000EF00F000000000AD
:0A0010000000000000000000F3D71C
:10001C000F0E0C6E470E0D6E0D2EFED70C2EFCD750
:06002C00000000001200BC
:0A003200210E0D6E0D2EFED71200F8
:06003C00000000001200AC
:100042002EBE02D08C9E01D08C8E2EBC02D08C9CF7
:1000520001D08C8C2EBA02D08C9A01D08C8A2EB808
:1000620002D08C9801D08C881BB002D08D8401D034
:100072008D948D82E2DF8D922EB602D08C9E01D0BD
:100082008C8E2EB402D08C9C01D08C8C2EB202D0DD
:100092008C9A01D08C8A2EB002D08C9801D08C8898
:1000A2001BB002D08D8401D08D948D82C6DF8D92DB
:0C00B2001BA002D0B2DF01D0BBDF1200A7
:1000BE00086A096A100E0C6E0134083609360450AF
:1000CE00085E0550D8A0053C095ED8B007D0045094
:1000DE0008260550D8B0053C0926D89000360136C2
:0600EE000C2EEAD71200FF
:0C00F4001B902DC02EF0A3DF1B8012001B
:100100000900F5CFE6FF0006FBE10106F9E1120068
:10011000969296949598959A959C959E8D928D948D
:100120008C9E8C9C8C9A8C9879DF78DF77DF8C8A18
:100130008C888D8283DF8D9271DF8D827FDF8D923F
:100140006DDF8D827BDF8D9269DF8C988D8276DF0B
:100150008D9264DF8D8272DF8D928C9A8C8E8D826F
:100160006DDF8D925BDF8C9E8C888D8267DF8D9238
:100170008C988D8263DF8D9251DF8D825FDF8D924F
:100180008C888D825BDF8D9249DF8C988D8256DF63
:100190008D928C8E8C8C8C8A8C888D824FDF8D9288
:0601A0003DDF1B80120090
:1001A6000FD0800E266E19D0C00E266E16D0940E75
:1001B600266E13D0D40E266E10D0800E266E0DD06D
:1001C6002650010AEEE02650020AEEE02650030A07
:1001D600EEE02650040AEEE0F0D72704006E265023
:1001E600002600C026F000C02EF028DF1B902A6AE9
:1001F6002A502824E96E000E2920EA6EEE520BE002
:100206002A502824E96E000E2920EA6EEECF2DF042
:0A0216006EDF2A2AEDD71B801200CC
:100220000ED092808080010EC26E0E0EC16E0DD077
:1002300092828082050EC26E0D0EC16E06D02650CF
:10024000000AEFE02650010AF3E0AA0EC06E1A0E73
:100250000D6E0D2EFED70000C282C2A201D0FDD7C6
:10026000C4CF03F0026AC3CF00F0000E016E02504B
:080270000012035001121200FC
:100278002A6A050E2A5C0AE22A502824E16E000E3A
:100288002920E26E200EE66E2A2AF3D72A50282467
:10029800E16E000E2920E26EE66A2A062A5028241A
:1002A8002B6E000E29202C6E0A0E046E000E056EB1
:1002B80026C000F027C001F0FEDE08C000F009C02B
:1002C80001F0300E00262BC0E1FF2CC0E2FF00C079
:1002D800E6FF0A0E046E000E056E26C000F027C069
:1002E80001F0E9DE00C026F001C027F0000E011879
:1002F80002E1000E001801E102D02A06CFD7120051
:10030800410E156E440E166E430E176E3A0E186E99
:10031800200E196E1A6A92808080010EC26E0E0E2F
:10032800C16EAA0EC06EF0DE010E2E6E86DE0C0EB9
:100338002E6E83DE010E266E010E276E150E286EB8
:10034800000E296E2CDF010E266E66DF00C026F037
:1003580001C027F01C0E286E000E296E89DF010EE1
:10036800266E010E276E1C0E286E000E296E17DFF2
:10037800340E0C6EF10E0D6E0D2EFED70C2EFCD722
:0803880000000000E0D7FFD7E0
:020000040030CA
:0D000100021F1EFF8181FF0FC00FE00F40A6
:00000001FF
