:100000001EEF03F00000000000EF00F00000000011
:0A0010000000000000000000F3D71C
:0A001C00210E0D6E0D2EFED712000E
:100026000F0E0C6E470E0D6E0D2EFED70C2EFCD746
:06003600000000001200B2
:06003C00000000001200AC
:100042000B840BAE2CEF00F0010E036E026A016A04
:0A005200006A0A360232FF0E1200A7
:0E005C00026A016A006A086A036A000E120056
:10006A0035BE02D08C9E01D08C8E35BC02D08C9CC1
:10007A0001D08C8C35BA02D08C9A01D08C8A35B8D2
:10008A0002D08C9801D08C881EB002D08D8401D009
:10009A008D948D82CEDF8D9235B602D08C9E01D0A2
:1000AA008C8E35B402D08C9C01D08C8C35B202D0A7
:1000BA008C9A01D08C8A35B002D08C9801D08C8869
:1000CA001EB002D08D8401D08D948D82B2DF8D92C4
:0C00DA001EA002D0A3DF01D09CDF1200AA
:0800E6000AAE029E000E12009A
:0C00EE001E9034C035F0BADF1E801200F6
:0C00FA000E0E0D6E0D2EFED70000120041
:100106000C6A0E6A0250D8A49CEF00F001C002F0FF
:1001160000C001F0006A0E860250D8A49CEF00F0E1
:1001260001C002F0016A0E960E880250D8B4AEEFF6
:1001360000F00E50035ED8A4D8A0B3EF00F0D8901C
:1001460002BEB8EF00F0003601360236032EA3EFEA
:1001560000F0B3EF00F0010E0C6E7DDFBBEF00F098
:10016600020E0C6E6BDFBBEF00F0040E0C6EB8DFF8
:02017600120075
:100178000B800BAEC8EF00F0026A0AAEFF0E026EEB
:0C018800016E006E0A360232FF0E1200FB
:100194000B820BAED4EF00F00368026801680068BC
:0801A4000A360232FF0E1200C0
:1001AC00086A096A100E0C6E0134083609360450C0
:1001BC00085E0550D8A0053C095ED8B007D00450A5
:1001CC0008260550D8B0053C0926D89000360136D3
:0601DC000C2EEAD7120010
:1001E2000900F5CFE6FF0006FBE10106F9E1120086
:1001F200969296949598959A959C959E8D928D94AB
:100202008C9E8C9C8C9A8C980DDF0CDF0BDF8C8A79
:100212008C888D8212DF8D9205DF8D820EDF8D92AA
:1002220001DF8D820ADF8D92FDDE8C988D8205DFE3
:100232008D92F8DE8D8201DF8D928C9A8C8E8D826A
:10024200FCDE8D92EFDE8C9E8C888D82F6DE8D92A6
:100252008C988D82F2DE8D92E5DE8D82EEDE8D92BD
:100262008C888D82EADE8D92DDDE8C988D82E5DED1
:100272008D928C8E8C8C8C8A8C888D82DEDE8D9217
:06028200D1DE1E80120017
:0E0288000D0EC1129280808092828082120040
:100296000FD0800E2D6E19D0C00E2D6E16D0940E76
:1002A6002D6E13D0D40E2D6E10D0800E2D6E0DD067
:1002B6002D50010AEEE02D50020AEEE02D50030A01
:1002C600EEE02D50040AEEE0F0D72E04006E2D501D
:1002D600002600C02DF000C035F0C4DE1E90316A45
:1002E60031502F24E96E000E3020EA6EEE520BE0FC
:1002F60031502F24E96E000E3020EA6EEECF34F036
:0A030600F3DE312AEDD71E8012004D
:10031000086A096A000E076203640DEF02F00250DA
:1003200006180A6E075003267E0ED8A09EEF01F035
:10033000035ED8B011EF02F0A2EF01F0035ED8A087
:1003400015EF02F0028E068E02C00EF001C00BF017
:1003500000C00DF000500402F4CF0CF00150050273
:10036000F4CF00F0F3CF08F00402F3500C26F45061
:100370000822000E00220D500502F3500C26F45006
:100380000822000E002202500402F3500826F45006
:10039000002202500502016A000E0122F3500026DD
:1003A000F45001220D500602F3500826F4500022AA
:1003B000026A000E012202220B500602F3500026B0
:1003C000F4500122000E02220E500602F3500126C4
:1003D000F450022202BEF5EF01F008360036013675
:1003E00002360306D8B415EF02F008EF02F0D88009
:1003F000800E08640030000E002201220222D8A0E4
:1004000008EF02F0023201320032034A11EF02F02B
:100410000AAE029E000E17EF02F0010E1FDE17EF6C
:1004200002F0020EB7DE17EF02F0040E0ADE120031
:100430000B6A0C6A0A6A0350D8B462EF02F0028EAB
:100440008E0E035E03BE2AEF02F0D8B42AEF02F04C
:1004500066EF02F0036C080E035CD8A041EF02F0D7
:10046000036E013602C001F0026A080E035CD8A0D8
:1004700041EF02F00136016A0350D8A4D8904BEF47
:1004800002F00350D8B44BEF02F0D89002320132A0
:10049000032E45EF02F00BBC01A058EF02F0D8A0EC
:1004A00058EF02F0012AD8B4022A02BE75EF02F01A
:1004B0000AAE7AEF02F0021E011E012AD8B4022A07
:1004C0007AEF02F0026A016A7AEF02F00B800BAE5B
:1004D0007EEF02F0026A0AAE7EEF02F0FF0E026EBD
:1004E000016E0A3602327EEF02F0010E0C6E44DE1F
:1004F00080EF02F0000E0C6E80EF02F0FF0E0C6E2B
:0A0500000150006E0250016E12005F
:10050A00316A050E315C0AE231502F24E16E000E89
:10051A003020E26E200EE66E312AF3D731502F24B6
:10052A00E16E000E3020E26EE66A310631502F2469
:10053A00326E000E3020336E0A0E046E000E056E07
:10054A002DC000F02EC001F02CDE08C000F009C05A
:10055A0001F0300E002632C0E1FF33C0E2FF00C0D6
:10056A00E6FF0A0E046E000E056E2DC000F02EC0C6
:10057A0001F017DE00C02DF001C02EF0000E0118A8
:10058A0002E1000E001801E102D03106CFD71200B5
:10059A00FF0E1F6EFF0E206EFF0E216EFF0E226EE3
:1005AA00C26A1D1C006E0050C116070EC012C08E12
:0405BA00C2801200E9
:1005BE00C26A1D1C006E0050C116070EC012C08EFE
:1005CE002DC000F000360090003600900050C21290
:1005DE00C2808CDDC282C2A201D0FDD7C4CF01F091
:0E05EE00006AC3500012000E0112C2901200EB
:1005FC0000C008F00150006E016A026A036A0B6ABF
:10060C000C6A016A026A036A960E036E0A6A00AEED
:10061C0016EF03F0081E001E082AD8B4002A0A8E12
:10062C0000C001F008C000F0086A026A66DD120022
:10063C0098EC03F023DED7DD010E356E10DD0C0EC9
:10064C00356E0DDD010E2D6E010E2E6E150E2F6EFC
:10065C00000E306E1ADE020E2D6E010E2E6E190E6D
:10066C002F6E000E306E11DE92DF2D6AA2DFC0DF1E
:10067C000D0E046E320E056E480E066E7B0E076E66
:10068C0041DED0DE00C02DF001C02EF0230E2F6E07
:10069C00000E306E34DF010E2D6E040E2E6E230E06
:1006AC002F6E000E306EF1DD250E346E1ADD340E19
:1006BC000C6EF10E0D6E0D2EFED70C2EFCD700001D
:1006CC000000010E2D6E75DF93DFD00E046E3F0E11
:1006DC00056E7F0E066E7C0E076E14DEA3DE00C068
:1006EC002DF001C02EF0230E2F6E000E306E07DFA2
:1006FC00020E2D6E040E2E6E230E2F6E000E306E1B
:10070C00C4DD340E0C6EF10E0D6E0D2EFED70C2EBC
:0A071C00FCD700000000A9D7FFD7AA
:1007300010EE15F0090E006E010E016E260EF66E1B
:0E074000070EF76E000EF86EF1EC00F01200DE
:0407260053313A0011
:04072A0053323A000C
:01072E00309A
:020000040030CA
:0D000100021F1EFF8181FF0FC00FE00F40A6
:00000001FF
