:100000005BEF00F00000000031EF00F000000000A6
:0C00100000000000000000003EEF00F0C7
:08001C00F28EF28CD08E12006E
:08002400F294F184F28A12004B
:08002C009E909F909D80120040
:10003400B00ECD6E0B0ECF6EDC0ECE6E9E90CD80CC
:020044001200A8
:0A0046000F0EC112956A836A1200C2
:10005000040ED56ECF0ED76E2C0ED66EF294D58EC2
:0200600012008C
:10006200F2A40AD08CB002D0838001D08390CF0E4C
:0A007200D76E2C0ED66EF29411002A
:10007C00156ED8CF16F0E0CF17F09EA00FD0015020
:10008C00010F006E00C001F00150040A02E18378F8
:10009C00016A0B0ECF6EDC0ECE6E9E901750E06E8A
:0A00AC001650D86E153A15381000F2
:1000B600C7DFCBDFBCDFAFDFB2DFB5DF8CBA02D084
:1000C600838A01D0839A0B0E0B6E260E0C6E5D0E84
:1000D6000D6E0D2EFED70C2EFCD70B2EFAD7000078
:0600E6000000ECD7FFD77B
:020000040030CA
:0D000100021F1EFF8181FF0FC00FE00F40A6
:00000001FF
