:1000000024EF14F00000000000EF00F000000000FA
:0A0010000000000000000000F3D71C
:10001C0082C3C9FFC7B002D00000FCD7C9CF00F023
:02002C001200C0
:10002E00F250026EF29E0500FF6A0150FE6E005005
:08003E00FD6E02BEF28E1200FD
:10004600400E03017925006E73C2E1FF74C2E2FF20
:1000560000C0E6FF71C200F072C201F0E5DF73C2B4
:10006600E1FF74C2E2FF7DC3E6FF71C200F072C217
:1000760001F0DADF73C2E1FF74C2E2FF7CC3E6FF80
:1000860071C200F072C201F0CFDF73C2E1FF74C229
:10009600E2FF7BC3E6FF71C200F072C201F0C4DF6B
:1000A60073C2E1FF74C2E2FF7AC3E6FF71C200F0D9
:1000B60072C201F0B9DF73C2E1FF74C2E2FF7EC310
:1000C600E6FF71C200F072C201F0AEDF0301806B81
:1000D600816B73C2E1FF74C2E2FFFF0EE66E71C26E
:1000E60000F072C201F0A0DF00C07FF30301804B75
:1000F600812B800E0014016E0150000A07E0000EED
:10010600815D02E1640E805D01E2E3D77FC300F00A
:020116001200D5
:040118008B941200B2
:10011C0073C2E1FF74C2E2FFFF0EE66E71C200F023
:10012C0072C201F07EDF0050FE0A01E0F1D712002E
:10013C008B8473C2E1FF74C2E2FFFF0EE66E71C2E4
:0A014C0000F072C201F06DDF120036
:10015600E0DF000E000A02E1040E501809E16BC34D
:100166006FF36CC370F36DC371F36EC372F314D087
:10017600090E006E6BC36FF36CC370F36DC371F33E
:100186006EC372F3005008E003016F376F9170374A
:1001960071377237FF0FF7D70301120E796F6FC3EE
:1001A6007AF370C37BF371C37CF372C37DF3FF0EE6
:1001B6007E6F46DF005204E0BEDF010E006E01D006
:0401C600006A1200B9
:1001CA00086A096A100E0C6E0134083609360450A2
:1001DA00085E0550D8A0053C095ED8B007D0045087
:1001EA0008260550D8B0053C0926D89000360136B5
:0601FA000C2EEAD71200F2
:100200006BC3E9FF6CC3EAFFEE5211E06BC3E9FF79
:100210006CC3EAFF6DC3D9FF6EC3DAFFEE50DE1880
:1002200006E103016B4B6C2B6D4B6E2BE9D76BC357
:10023000E9FF6CC3EAFF6DC3D9FF6EC3DAFFDE507E
:0C024000EE5C006E016A000E015A120014
:10024C0003016B51200A09E06B510D0804E3090E00
:10025C006B5D01E302D0006A02D0010E006E120049
:10026C006BC302F06CC303F06EC300F06FC301F0FC
:10027C00010E03016E5F000E6F5B0050011009E070
:10028C0002C0E1FF03C0E2FF6DC3E6FF024A032A8E
:0C029C00EBD76BC300F06CC301F0120044
:1002A8006DC304F06EC305F06BC302F06CC303F0BA
:1002B8006FC300F070C301F0010E03016F5F000E01
:1002C800705B005001100FE004C0E9FF05C0EAFFB1
:1002D80002C0E1FF03C0E2FFEECFE6FF024A032AB5
:1002E800044A052AE5D76BC300F06CC301F012007D
:1002F8000B6A0A6A096A00500402F4CF09F0F3CFC6
:1003080008F001500502F4CF0BF0F3CF0AF00050CB
:100318000502F3500926F4500A22E86A0B2201501C
:100328000402F3500926F4500A22E86A0B2208C096
:1003380000F009C001F00AC002F00BC003F012007F
:10034800010E03016B25E96E000E6C21EA6EEECFFB
:1003580003F0000E046E000E046E03C001F0006A84
:1003680000C003F001C004F06BC3D9FF6CC3DAFF0F
:10037800DE500026000E012200C003F001C004F088
:0A03880000C003F001C004F01200F1
:10039200030E03016B25E96E000E6C21EA6EEECFAF
:1003A20009F0000E0A6E0B6E0C6E000E0A6E0B6EDA
:1003B2000C6E0BC003F00AC002F009C001F0006A23
:1003C20000C009F001C00AF002C00BF003C00CF03B
:1003D200020E6B25D96E000E6C21DA6EDE500024FF
:1003E200056E000E0120066E000E0220076E000E42
:1003F2000320086E05C009F006C00AF007C00BF022
:1004020008C00CF007C003F006C002F005C001F0FE
:10041200006A00C009F001C00AF002C00BF003C07C
:100422000CF0010E6B25D96E000E6C21DA6EDE50D7
:100432000024056E000E0120066E000E0220076EDB
:10044200000E0320086E05C009F006C00AF007C0BE
:100452000BF008C00CF007C003F006C002F005C0A4
:1004620001F0006A00C009F001C00AF002C00BF0FE
:1004720003C00CF06BC3D9FF6CC3DAFFDE50002659
:10048200000E01220222032200C009F001C00AF07C
:1004920002C00BF003C00CF000C009F001C00AF06A
:0A04A20002C00BF003C00CF01200C2
:1004AC0035DE000E000A02E1040E501809E16BC3A0
:1004BC0073F36CC374F36DC375F36EC376F314D01E
:1004CC00090E006E6BC373F36CC374F36DC375F3D9
:1004DC006EC376F3005008E00301733773917437E1
:1004EC0075377637FF0FF7D70301110E796F73C38A
:1004FC007AF374C37BF375C37CF376C37DF3FF0E81
:10050C007E6F9BDD005204E013DE010E006E4BD0BB
:10051C0073C2E1FF74C2E2FFFF0EE66E71C200F01F
:10052C0072C201F07EDD0050FE0A01E0F1D703013A
:10053C00716B726B020E725D02E1000E715D1BE25B
:10054C0071516F25776F72517021786F73C2E1FF13
:10055C0074C2E2FFFF0EE66E71C200F072C201F0CF
:10056C0060DD77C3E1FF78C3E2FF00C0E6FF030163
:10057C00714B722BDFD773C2E1FF74C2E2FFFF0E27
:10058C00E66E71C200F072C201F04BDD73C2E1FF86
:10059C0074C2E2FFFF0EE66E71C200F072C201F08F
:0805AC0040DDC6DD006A12000B
:1005B400B1DD000E000A02E1040E501809E16BC31C
:1005C40073F36CC374F36DC375F36EC376F314D015
:1005D400090E006E6BC373F36CC374F36DC375F3D0
:1005E4006EC376F3005008E00301733773917437D8
:1005F40075377637FF0FF7D70301180E796F73C37A
:100604007AF374C37BF375C37CF376C37DF3FF0E77
:100614007E6F17DD005204E08FDD010E006E8BD07B
:1006240073C2E1FF74C2E2FFFF0EE66E71C200F016
:1006340072C201F0FADC73C2E1FF74C2E2FFFF0E82
:10064400E66E71C200F072C201F0EFDC73C2E1FF2A
:1006540074C2E2FFFE0EE66E71C200F072C201F0D7
:10066400E4DC0301716B726B7251010802E1715198
:10067400FF0815E371516F25E96E72517021EA6E1E
:1006840073C2E1FF74C2E2FFEECFE6FF71C200F075
:1006940072C201F0CADC0301714B722BE5D773C23D
:1006A400E1FF74C2E2FFFF0EE66E71C200F072C297
:1006B40001F0BBDC73C2E1FF74C2E2FFFF0EE66E21
:1006C40071C200F072C201F0B0DC73C2E1FF74C207
:1006D400E2FFFF0EE66E71C200F072C201F0A5DC0B
:1006E40000C071F3000E0301726F1F0E7115016ECD
:1006F40072C302F0000E021601C071F302C072F35D
:10070400000E021802E1050E011804E015DD020EC8
:10071400006E11D073C2E1FF74C2E2FFFF0EE66EF9
:1007240071C200F072C201F080DC0050FF0A01E0E7
:08073400F1D702DD006A12009A
:10073C00EFDC03016D6B6E6B020E6E5D02E1000E61
:10074C006D5D1BE26D516B256F6F6E516C21706F7F
:10075C0073C2E1FF74C2E2FFFF0EE66E71C200F0DD
:10076C0072C201F05EDC6FC3E1FF70C3E2FF00C038
:10077C00E6FF03016D4B6E2BDFD773C2E1FF74C232
:10078C00E2FFFF0EE66E71C200F072C201F049DCAE
:10079C0073C2E1FF74C2E2FFFF0EE66E71C200F09D
:0807AC0072C201F03EDC1200F4
:1007B40073C2E1FF74C2E2FF4C0EE66E71C200F038
:1007C40072C201F032DC73C2E1FF74C2E2FFE66A76
:1007D40071C200F072C201F028DC73C2E1FF74C27E
:1007E400E2FFE66A71C200F072C201F01EDC73C25D
:1007F400E1FF74C2E2FFE66A71C200F072C201F066
:1008040014DC73C2E1FF74C2E2FFE66A71C200F055
:1008140072C201F00ADC73C2E1FF74C2E2FFFF0E90
:10082400E66E71C200F072C201F017EC00F0030131
:100834006C6B6D6B73C2E1FF74C2E2FFFF0EE66E78
:1008440071C200F072C201F017EC00F000C06BF34B
:1008540003016C4B6D2B800E0014016E0150000AD5
:1008640007E0000E6D5D02E1640E6C5D01E2E2D70B
:100874006BAF04D061DC6BC300F013D073C2E1FF33
:1008840074C2E2FFFF0EE66E71C200F072C201F0A4
:1008940017EC00F000C06BF30050000AEFE04CDCF2
:0408A400006A1200D4
:1008A8005C0E0301676F030E686F5AC369F35BC37D
:1008B8006AF35C0E6B6F030E6C6F200E6D6F0B0E80
:1008C8006E6F000E6F6FCEDC5AC3E9FF5BC3EAFFA1
:1008D800EE520CE05AC3E9FF5BC3EAFFEECF6BF3BD
:1008E800B1DC005203E05A4B5B2BEED75AC36BF3D3
:1008F8005BC36CF3530E6D6F000E6E6F7DDC000EE4
:10090800011802E1000E001806E12E0E03015C6FCB
:100918002E0E5D6F5ED003015AC36BF35BC36CF39D
:10092800510E6D6F000E6E6F67DC000E011802E14C
:10093800000E001804E12E0E03015C6F4AD05AC362
:10094800E9FF5BC3EAFFEE521FE05AC3E9FF5BC34E
:10095800EAFFEECF6BF376DC005216E15AC3E9FFEB
:100968005BC3EAFFEE502E0A0FE05AC3E9FF5BC3F0
:10097800EAFF67C3E1FF68C3E2FFEECFE6FF674B1C
:10098800682B5A4B5B2BDBD75AC3E9FF5BC3EAFFE3
:10099800EE502E0A03E103015A4B5B2B0301640E50
:1009A800676F030E686F5AC3E9FF5BC3EAFFEE5037
:1009B80020080FE25AC3E9FF5BC3EAFF67C3E1FF00
:1009C80068C3E2FFEECFE6FF674B682B5A4B5B2B01
:1009D800EAD769C36BF36AC36CF35C0E6D6F030EE1
:0E09E8006E6F0B0E6F6F000E706F5ADC1200F8
:1009F6000B6A0A6A096A086A0E6A033408360450E2
:100A0600085E0550D8A0053C095E0650D8A0063CF5
:100A16000A5E0750D8A0073C0B5EE86AD8A0010E14
:100A26000E5E0336070E0C6E0334083609360A3698
:100A36000B360E36045003A012D0085E0550D8A01F
:100A4600053C095E0650D8A0063C0A5E0750D8A0B1
:100A5600073C0B5EE86AD8A0010E0E5E11D0082690
:100A66000550D8B0053C09260650D8B0063C0A26E3
:100A76000750D8B0073C0B26E86AD8B0010E0E2600
:100A860003360C2ED1D70234083609360A360B3611
:100A96000E36045003A012D0085E0550D8A0053CBF
:100AA600095E0650D8A0063C0A5E0750D8A0073C4F
:100AB6000B5EE86AD8A0010E0E5E11D0082605501E
:100AC600D8B0053C09260650D8B0063C0A26075081
:100AD600D8B0073C0B26E86AD8B0010E0E260236BF
:100AE600070E0C6E0234083609360A360B360E36F9
:100AF600045002A012D0085E0550D8A0053C095E3D
:100B06000650D8A0063C0A5E0750D8A0073C0B5EEC
:100B1600E86AD8A0010E0E5E11D008260550D8B09E
:100B2600053C09260650D8B0063C0A260750D8B020
:100B3600073C0B26E86AD8B0010E0E2602360C2EAC
:100B4600D1D70134083609360A360B360E3604502C
:100B560002A012D0085E0550D8A0053C095E0650DA
:100B6600D8A0063C0A5E0750D8A0073C0B5EE86A90
:100B7600D8A0010E0E5E11D008260550D8B0053C4F
:100B860009260650D8B0063C0A260750D8B0073CBE
:100B96000B26E86AD8B0010E0E260136070E0C6E3B
:100BA6000134083609360A360B360E36045001A0D3
:100BB60012D0085E0550D8A0053C095E0650D8A0A4
:100BC600063C0A5E0750D8A0073C0B5EE86AD8A030
:100BD600010E0E5E11D008260550D8B0053C092638
:100BE6000650D8B0063C0A260750D8B0073C0B265C
:100BF600E86AD8B0010E0E2601360C2ED1D7003485
:100C0600083609360A360B360E36045001A012D0C5
:100C1600085E0550D8A0053C095E0650D8A0063CE3
:100C26000A5E0750D8A0073C0B5EE86AD8A0010E02
:100C36000E5E11D008260550D8B0053C0926065090
:100C4600D8B0063C0A260750D8B0073C0B26E86AFF
:100C5600D8B0010E0E260036070E0C6E003408368C
:100C660009360A360B360E36045000A012D0085E3E
:100C76000550D8A0053C095E0650D8A0063C0A5E81
:100C86000750D8A0073C0B5EE86AD8A0010E0E5E9E
:100C960011D008260550D8B0053C09260650D8B014
:100CA600063C0A260750D8B0073C0B26E86AD8B09F
:100CB600010E0E2600360C2ED1D700B00ED00450F1
:100CC60008260550D8B0053C09260650D8B0063C83
:0C0CD6000A260750D8B0073C0B2612007D
:100CE2005AC35EF35BC35FF35CC360F35DC361F33E
:100CF2000301626B636B000E635D02E1080E625DCD
:100D020019E25EC3E9FF5FC3EAFFEE50200A01E188
:100D120011D05EC3E9FF5FC3EAFF60C3E1FF61C3B5
:100D2200E2FFEECFE6FF604B612B5E4B5F2B624B27
:100D3200632BE1D7080E5A25016E000E5B21026E6D
:100D420001C05EF302C05FF301C0E9FF02C0EAFF27
:100D5200EE50200A29E060C3E1FF61C3E2FF2E0EDC
:100D6200E66E604B612B626B636B000E635D02E1AA
:100D7200030E625D19E25EC3E9FF5FC3EAFFEE5054
:100D8200200A01E111D05EC3E9FF5FC3EAFF60C33D
:100D9200E1FF61C3E2FFEECFE6FF604B612B5E4BEA
:100DA2005F2B624B632BE1D760C3E1FF61C3E2FFBC
:100DB200E66A0D0E5C25E16E000E5D21E26E0B0E01
:100DC2005A25E96E000E5B21EA6EEECFE6FF1A0E9F
:100DD2005C25646F000E5D21656F1C0E5A256B6FDA
:100DE200000E5B216C6FC9EC01F064C3E1FF65C3C7
:100DF200E2FF00C0E6FF01C0E6FF02C0E6FF03C05B
:100E0200E6FF1E0E5C25646F000E5D21656F1A0EF3
:100E12005A256B6F000E5B216C6FA4EC01F064C36A
:100E2200E1FF65C3E2FF00C0E6FF01C0E6FF0E0E70
:100E32005A25006E000E5B21016E00C0E9FF01C061
:100E4200EAFFEECF04F0010E0024E96E000E01204D
:100E5200EA6EEECF03F003C001F0006A04500024F2
:100E6200036E000E0120046E03C062F304C063F33C
:100E72000E0E5C25006E000E5D21016E030E002435
:100E8200E16E000E0120E26E0B0E026E03C000F056
:100E920004C001F0025005E001320032019EFF0F52
:100EA200FAD700C0E6FF0E0E5C25006E000E5D2133
:100EB200016E040E0024E16E000E0120E26E050EAA
:100EC200026E62C300F063C301F0025005E001321A
:100ED2000032019EFF0FFAD73F0E0014006E00C0D1
:100EE200E6FF0E0E5C25006E000E5D21016E050E02
:100EF2000024E16E000E0120E26E1F0E6215026EEA
:100F020002C000F00036009000C0E6FF100E5A2525
:100F1200006E000E5B21016E00C0E9FF01C0EAFF16
:100F2200EECF04F0010E0024E96E000E0120EA6EFD
:100F3200EECF03F003C001F0006A04500024026EF9
:100F4200000E0120036E02C062F303C063F30E0EB3
:100F52005C25006E000E5D21016E020E0024E16E22
:100F6200000E0120E26E1F0E0214006E00C0E6FFAA
:100F72000E0E5C25006E000E5D21016E010E002436
:100F8200E16E000E0120E26E050E026E62C300F0F9
:100F920063C301F0025005E001320032019EFF0FEF
:100FA200FAD70F0E0014006E00C0E6FF0E0E5C258D
:100FB200E16E000E5D21E26E090E026E62C300F068
:100FC20063C301F0025005E001320032019EFF0FBF
:100FD200FAD700C0E6FF160E5A25006E000E5B21FE
:100FE200016E00C0E9FF01C0EAFFEECF04F0010E7E
:100FF2000024E96E000E0120EA6EEECF03F003C07A
:1010020001F0006A04500024036E000E0120046EF9
:1010120003C062F304C063F3140E5C25006E000E7D
:101022005D21016E030E0024E16E000E0120E26ECE
:101032000B0E026E03C000F004C001F0025005E086
:1010420001320032019EFF0FFAD700C0E6FF140EF4
:101052005C25006E000E5D21016E040E0024E16E1F
:10106200000E0120E26E050E026E62C300F063C341
:1010720001F0025005E001320032019EFF0FFAD763
:101082003F0E0014006E00C0E6FF140E5C25006ED9
:10109200000E5D21016E050E0024E16E000E01209E
:1010A200E26E1F0E6215026E02C000F00036009062
:1010B20000C0E6FF180E5A25006E000E5B21016E7D
:1010C20000C0E9FF01C0EAFFEECF04F0010E0024E8
:1010D200E96E000E0120EA6EEECF03F003C001F0CC
:1010E200006A04500024026E000E0120036E02C04A
:1010F20062F303C063F3140E5C25006E000E5D21E3
:10110200016E020E0024E16E000E0120E26E1F0E3F
:101112000214006E00C0E6FF140E5C25006E000E85
:101122005D21016E010E0024E16E000E0120E26ECF
:10113200050E026E62C300F063C301F0025005E0C7
:1011420001320032019EFF0FFAD70F0E0014006E1B
:1011520000C0E6FF140E5C25E16E000E5D21E26E1A
:10116200090E026E62C300F063C301F0025005E093
:1011720001320032019EFF0FFAD700C0E6FF1200D3
:10118200E5C204F0E6C205F05AC300F05BC301F009
:10119200E5EC00F000C05CF301C05DF3000E03015A
:1011A2005E6F5F6F63505C25006E64505D21016E5F
:1011B20065505E21026E66505F21036E00C05CF3D3
:1011C20001C05DF302C05EF303C05FF3010E0201D2
:1011D2006F6F00C06BF301C06CF302C06DF303C00C
:1011E2006EF36F0E03016F6F000E706F56EC02F01C
:1011F200005208E0100E0201706FFF0E006EFF0E2B
:10120200016E22D0E5C204F0E6C205F05AC300F036
:101212005BC301F0E5EC00F008C000F009C001F08A
:1012220000C002F001C003F00236029003366F0ED6
:10123200022403016B6F000E03206C6FA4EC01F01B
:0A12420000C05AF301C05BF3120074
:10124C005AC302F05BC303F002C000F003C001F00C
:10125C00024A032A00C0E9FF01C0EAFFEE5201E096
:10126C00F3D703015A51025C006E5B510358016EB7
:0A127C00010E005E000E015A120080
:1012860003015A517A0804E3610E5A5DD8B05A9B9D
:061296005AC300F0120033
:10129C0061C000F062C001F0E5C204F0E6C205F0E6
:1012AC007CEC01F000C05AF301C05BF3020E0301A9
:1012BC005C6F000E5D6FE5C204F0E6C205F0020E35
:1012CC00006E000E016EE5EC00F000C05EF301C094
:1012DC005FF3000E606F616F63505E25646F645046
:1012EC005F21656F65506021666F66506121676F85
:1012FC0064C35EF365C35FF366C360F367C361F3F6
:10130C00E5C204F0E6C205F0020E006E000E016E9E
:10131C00E5EC00F008C000F009C001F000C002F0DC
:10132C0001C003F00236029003366F0E0224626F86
:10133C00000E0320636F64C36BF365C36CF366C369
:10134C006DF367C36EF3ABEC00F0010E02016F6F2F
:10135C006F0E03016B6F000E6C6F9EEC03F00301BC
:10136C005B515D5D02E15A515C5D2EE262C3E9FFA7
:10137C0063C3EAFFEECF01F0EECF02F0000E0218CD
:10138C0002E1000E011801E11FD0020E6225016E70
:10139C00000E6321026E01C062F302C063F35C4B6A
:1013AC005D2B025002017A1902E1795101180BE10F
:1013BC006F0E0301626F000E636F6F0E6B6F000E8A
:1013CC006C6F9EEC03F0CBD7DAEC03F0005208E024
:1013DC00100E0201706FFF0E006EFF0E016E10D02A
:1013EC0003015D515B1902E15A515C1905E1FF0ED5
:1013FC00006EFF0E016E04D05CC300F05DC301F003
:02140C001200CC
:10140E00220E0C6E086A096A0A6A0B6A0C06D8B4B8
:10141E001FD0D8900B320A32093208320332023210
:10142E0001320032D8A0F2D70C06D8B409D004503D
:10143E0008260550092206500A2207500B22EAD729
:10144E00045008260550092206500A2207500B2286
:02145E0012007A
:101460005EC301F05FC302F0010E03015E5F000E78
:101470005F5B000E021802E1000E01181FE05AC364
:10148000E9FF5BC3EAFF5CC3D9FF5DC3DAFFEE503F
:10149000DE180FE05AC3E9FF5BC3EAFF5CC3D9FF64
:1014A0005DC3DAFFDE50EE5C006E016A000E015A89
:1014B00007D05A4B5B2B5C4B5D2BD2D7006A016A7D
:0214C000120018
:1014C200E5C204F0E6C205F05AC300F05BC301F0C6
:1014D200E5EC00F000C062F301C063F3000E03010B
:1014E200646F656F63506225006E64506321016E04
:1014F20065506421026E66506521036E00C062F37E
:1015020001C063F302C064F303C065F3010E02017C
:101512006F6F00C06BF301C06CF302C06DF303C0C8
:101522006EF36F0E03016F6F000E706F56EC02F0D8
:10153200005208E0100E0201706FFF0E006EFF0EE7
:10154200016E89D0E5C204F0E6C205F05AC300F08C
:101552005BC301F0E5EC00F008C000F009C001F047
:1015620000C060F301C061F300C002F001C003F0EB
:1015720002360290033602C060F303C061F36F0EBD
:101582000224E16E000E0320E26E5CC3E6FF010E50
:1015920003016025006E000E6121016E6F0E0024B2
:1015A200E16E000E0120E26E5DC3E6FF62C36BF3E3
:1015B20063C36CF364C36DF365C36EF36F0E6F6F39
:1015C200000E706FDAEC02F0005208E0050E020124
:1015D200706FFF0E006EFF0E016E3DD0010E030113
:1015E2005E6F000E5F6F000E5F5D02E15E505E5D3A
:1015F20030E261506225006E62506321016E000E7E
:101602006421026E000E6521036E00C062F301C008
:1016120063F302C064F303C065F300C06BF301C05F
:101622006CF302C06DF303C06EF36F0E6F6F000EAA
:10163200706FDAEC02F0005208E0050E0201706FE2
:10164200FF0E006EFF0E016E06D003015E4B5F2B94
:08165200CAD7006A016A120008
:10165A0003014E6B0D0E4E5D17E24E514A254F6F38
:10166A00000E4B21506F4E514C25E96E000E4D2154
:10167A00EA6EEECF5AF302DE4FC3E1FF50C3E2FF38
:0A168A0000C0E6FF4E2BE6D7120069
:101694001A0E03014A256B6F000E4B216C6FA4ECEC
:1016A40001F04EC3E1FF4FC3E2FF00C0E6FF01C0FB
:1016B400E6FF4EC3E9FF4FC3EAFFEECF00F0EECFE3
:1016C40001F0005001102BE1E7DD4EC3E1FF4FC3F1
:1016D400E2FF00C0E6FF01C0E6FF4EC3E9FF4FC3CF
:1016E400EAFFEECF01F0EECF02F00250FF0A02E172
:1016F400FF0E011806E1040E0201706FFF0E006E6A
:101704007CD14EC3E9FF4FC3EAFFEECF5AF3EECFCD
:101714005BF3FF0E03015C6FFF0E5D6FD0DE4EC303
:10172400E9FF4FC3EAFFEECF00F0EECF01F0000E69
:10173400026E036E020E005E000E015A025A035A34
:101744005AC004F05BC005F0000E066E076E5DDE45
:101754004CC3E1FF4DC3E2FF00506B24E66E015021
:101764006C20E66E02506D20E66E03506E20E66E2D
:10177400020178516A1808E17751691805E1765138
:10178400681802E17551671805E15FC052F360C043
:1017940053F30ED05AC000F05BC001F056C004F001
:1017A40057C005F07CEC01F000C052F301C053F3C4
:1017B40075C256F376C257F377C258F378C259F319
:1017C4006F0E0301546F000E556F75C26BF376C232
:1017D4006CF377C26DF378C26EF3ABEC00F0010EDC
:1017E40002016F6F6F0E03016B6F000E6C6F9EEC46
:1017F40003F00301506B516B5351515D02E152519F
:10180400505DD8B0EBD054C3E9FF55C3EAFFEECF27
:1018140001F00150E50A0AE054C3E9FF55C3EAFFA9
:10182400EECF01F0200E015C01E3B1D0DAEC03F05D
:10183400005206E0100E0201706FFF0E006EDDD044
:1018440054C36BF355C36CF34AC36DF34BC36EF3CC
:10185400200E03016F6F000E706F54EC01F01A0E2E
:101864005425E16E000E5521E26E4EC3E9FF4FC3CD
:10187400EAFFFF0EEE14006E00C0E6FF1A0E5425B8
:10188400006E000E5521016E010E0024E16E000E63
:101894000120E26E4EC3E9FF4FC3EAFFEECF03F02F
:1018A400EECF04F004C000F0016A00C0E6FF0E0EA3
:1018B4005425E16E000E5521E26E8AC2E6FF0E0E3B
:1018C4005425006E000E5521016E010E0024E16EB8
:1018D400000E0120E26E8BC2E6FF100E5425E16E6D
:1018E400000E5521E26E88C2E6FF100E5425006EEC
:1018F400000E5521016E010E0024E16E000E012040
:10190400E26E89C2E6FF160E5425E16E000E5521E3
:10191400E26E8AC2E6FF160E5425006E000E5521B3
:10192400016E010E0024E16E000E0120E26E8BC2F6
:10193400E6FF180E5425E16E000E5521E26E88C2B2
:10194400E6FF180E5425006E000E5521016E010E9F
:101954000024E16E000E0120E26E89C2E6FF56C348
:101964006BF357C36CF358C36DF359C36EF36F0E27
:101974006F6F000E706FDAEC02F0005206E0050E95
:101984000201706FFF0E006E38D0006A36D0200E50
:1019940003015425016E000E5521026E01C054F35B
:1019A40002C055F3025002017A1902E1795101187B
:1019B40011E1010E03015627000E57235823592322
:1019C4006F0E546F000E556F6F0E6B6F000E6C6FC1
:1019D4009EEC03F00301504B512B0ED7DAEC03F0CD
:1019E400005206E0100E0201706FFF0E006E05D06B
:0C19F4000201060E706FFF0E006E120064
:101A00004AC35AF34BC35BF321DC00C04CF30050D4
:101A1000000A03E1FF0E006E5BD04C510C0803E29C
:101A2000FE0E006E55D04AC3D9FF4BC3DAFF2E0E0F
:101A3000DE1803E1FD0E006E4BD04E6B4AC34FF330
:101A40004BC350F34CC34DF34D51000820E24D51B0
:101A50004A25D96E000E4B21DA6E2E0EDE1815E1E6
:101A6000010E4E6F4D51080803E2FC0E006E30D09F
:101A70004D51010F006E016A000E012200504A25EF
:101A80004F6F01504B21506F02D04D07DDD7010E33
:101A90004E1906E04C51080803E2FB0E006E18D008
:101AA000010E4E1914E14FC35AF350C35BF326ECF9
:101AB00009F000C04CF30050000A03E1F50E006E7F
:101AC00007D04C51030803E2F40E006E01D0006A07
:021AD000120002
:101AD2000201E351E41109E1070E706FFF0E006E7F
:101AE200FF0E016E026E036EF8D0010E6F6F0301DE
:101AF2004D510201E25D0EE103014C510201E15D33
:101B020009E103014B510201E05D04E103014A5185
:101B12000201DF5D09E2DFC2D1F2E0C2D2F2E1C22C
:101B2200D3F2E2C2D4F208D04AC3D1F24BC3D2F20A
:101B32004CC3D3F24DC3D4F258C004F059C005F0DF
:101B4200000E066E076ED1C200F0D2C201F0D3C2FF
:101B520002F0D4C203F0FBEC04F05AC004F05BC004
:101B620005F0000E066E076EFBEC04F000C04EF3AB
:101B720001C04FF3CFC2D5F2D0C2D6F2000E006E32
:101B820003014F51005C02E14E51000826E2D5C22A
:101B92005AF3D6C25BF3C1EC08F000C0D5F201C023
:101BA200D6F20150FF0A02E1FF0E001810E1DFC277
:101BB200D1F2E0C2D2F2E1C2D3F2E2C2D4F20A0E10
:101BC2000201706F006A016A026A036A86D0010E1E
:101BD20003014E5F000E4F5BD1D758C004F059C0CD
:101BE20005F0000E066E076ED1C200F0D2C201F0FF
:101BF200D3C202F0D4C203F0FBEC04F05AC004F0EA
:101C02005BC005F0000E066E076EFBEC04F008C028
:101C120000F009C001F00AC002F00BC003F000C0DE
:101C220050F301C051F302C052F303C053F350C347
:101C3200DBF251C3DCF2D5C200F0D6C201F0000ED5
:101C4200026E036E020E005E000E015A025A035A21
:101C52005AC004F05BC005F0000E066E076E07EC7A
:101C62000AF06B5000266C5001226D5002226E5019
:101C720003225051002651510122000E022203225A
:101C820000C0D7F201C0D8F202C0D9F203C0DAF222
:101C920058C004F059C005F0000E066E076ED1C29E
:101CA20000F0D2C201F0D3C202F0D4C203F0FBECC6
:101CB20004F008C000F009C001F00AC002F00BC035
:101CC20003F000C0DDF201C0DEF2D1C200F0D2C2E8
:0C1CD20001F0D3C202F0D4C203F01200F3
:101CDE000301546B556B566B576B4A514B1103E115
:101CEE00FF0E006EDDD04AC35AF34BC35BF354ECC8
:101CFE0004F0020178516A1808E17751691805E17C
:101D0E007651681802E17551671805E15FC050F30E
:101D1E0060C051F30ED05AC000F05BC001F056C047
:101D2E0004F057C005F07CEC01F000C050F301C088
:101D3E0051F375C254F376C255F377C256F378C297
:101D4E0057F36F0E0301526F000E536F75C26BF394
:101D5E0076C26CF377C26DF378C26EF3ABEC00F023
:101D6E00010E02016F6F6F0E03016B6F000E6C6F31
:101D7E009EEC03F003014E6B4F6B51514F5D02E130
:101D8E0050514E5DD8B080D052C35AF353C35BF35B
:101D9E004AC35CF34BC35DF30B0E5E6F000E5F6FB9
:101DAE0030EC0AF0000E011802E1000E001845E1B9
:101DBE00DAEC03F0005206E0100E0201706FFF0E17
:101DCE00006E6ED003014C514D1135E052C35AF3E3
:101DDE0053C35BF34CC35CF34DC35DF371EC06F080
:101DEE00200E4C25E16E000E4D21E26E54C3E6FF2F
:101DFE0055C3E6FF56C3E6FF57C3E6FF240E4C2538
:101E0E00E16E000E4D21E26E6F0E525D036E000EFE
:101E1E005359046E050E026E03C000F004C001F0AB
:101E2E00025005E001320032019EFF0FFAD700C0CA
:101E3E00E6FF01C0E6FF006A33D00301200E5225F3
:101E4E00016E000E5321026E01C052F302C053F315
:101E5E00025002017A1902E17951011811E1010EC5
:101E6E0003015427000E5523562357236F0E526F2E
:101E7E00000E536F6F0E6B6F000E6C6F9EEC03F0C7
:101E8E0003014E4B4F2B79D7DAEC03F0005206E0EC
:101E9E00100E0201706FFF0E006E02D0FF0E006E6C
:021EAE00120020
:101EB000E7C24AF3E8C24BF3A3DD005206E0120E7C
:101EC0000201706FFF0E006E03D27B0E03014A6F9A
:101ED000020E4B6FE7C24CF3E8C24DF32DEC0BF052
:101EE0000201E351E41120E01C0E006E000E016EB1
:101EF00090C204F0000E90BFFF0E056E7CEC01F066
:101F0000910E0024E16E020E0120E26E1C0E006EA6
:101F1000C90EE96E020EEA6EEECFE6FF0006FCE1A6
:101F2000E36BE46BFF0E906F350E03016B6F030ED6
:101F30006C6F7B0E6D6F020E6E6F0D0E6F6F000E6D
:101F4000706F54EC01F07B0E4A6F020E4B6F0F0E58
:101F50004C6F030E4D6FC3DE800E0018016E800EB5
:101F6000000A015C68E20201EAAF5FD00301426B44
:101F7000436B446B456B466B476B580E0201EA1589
:101F8000006E05E0080E706FFF0E006EA1D1EB0E23
:101F900003016B6F020E6C6F6D6B200E6E6F000E87
:101FA0006F6F36EC01F07F0E0201EA15006E00C083
:101FB000F6F2EB0E03016B6F020E6C6F7B0E6D6F12
:101FC000020E6E6F0B0E6F6F000E706F54EC01F00F
:101FD000EB0E4A6F020E4B6F440E4C6F030E4D6FAB
:101FE000420E4E6F030E4F6F4AEC0BF0800E00183E
:101FF000016E800E000A015C03E2FF0E006E68D1E4
:10200000350E03014A6F030E4B6F0F0E4C6F030E1C
:102010004D6F65DE800E0018016E800E000A015CB7
:1020200003E2FF0E006E54D106D00D0E0201706F58
:10203000FF0E006E4DD1580E03011C15006E06E018
:10204000080E0201706FFF0E006E42D103010B6B90
:102050000C6B000E0C5D02E1020E0B5D4BE21C0EE0
:10206000006E000E016E0BC304F00CC305F07CEC97
:1020700001F0910E0026020E012200C00DF301C0F6
:102080000EF31A0E0024E96E000E0120EA6EEE50E7
:10209000EE102DE0060E0D25D96E000E0E21DA6E23
:1020A000DECF01F0DECF02F02E51021802E1015026
:1020B0002D191DE11A0E0D25E16E000E0E21E26EA6
:1020C000E9C2E6FF000EE66E1C0E006EC90EE16E60
:1020D000020EE26E0DC3E9FF0EC3EAFFEECFE6FF8C
:1020E0000006FCE10BC390F20BC300F0F1D00B4BE8
:1020F0000C2BAFD70B6B0C6B000E0C5D02E1020ECC
:102100000B5DD8B0E0D01C0E006E000E016E0BC34C
:1021100004F00CC305F07CEC01F0910E0026020ED9
:1021200001221A0E0024E96E000E0120EA6EEECFA5
:1021300000F0EECF01F000500110D8A4C1D01C0E69
:10214000006E000E016E0BC304F00CC305F07CECB6
:1021500001F0910E0026020E012200C00DF301C015
:102160000EF300C06BF301C06CF36D6B1C0E6E6F51
:10217000000E6F6F36EC01F0060E0D25026E000E9C
:102180000E21036E0C0E0D25006E000E0E21016E49
:1021900000C0E1FF01C0E2FF2DC3E6FF2EC3E6FF52
:1021A00000C0E9FF01C0EAFF02C0E1FF03C0E2FF97
:1021B000EECFE6FFEECFE6FF1A0E0D25E16E000E24
:1021C0000E21E26EE9C2E6FF000EE66E0DC3E1FFEE
:1021D0000EC3E2FF2FC3E6FF30C3E6FF31C3E6FFC5
:1021E00032C3E6FF040E0D25E16E000E0E21E26EF5
:1021F000050E026E33C300F034C301F0025005E057
:10220000003600900136FF0FFAD700C0E6FF01C08C
:10221000E6FF160E0D25E16E000E0E21E26E29C3BB
:10222000E6FF2AC3E6FF2BC3E6FF2CC3E6FF0E0E34
:102230000D25486F000E0E21496F0C0E0D25E96E1D
:10224000000E0E21EA6EEECF00F0EECF01F0000E90
:10225000026E036E020E005E000E015A025A035A0D
:102260005AC004F05BC005F0000E066E076E07EC66
:102270000AF06B5000266C5001226D5002226E5005
:10228000032248C3E1FF49C3E2FF00C0E6FF01C0EB
:10229000E6FF02C0E6FF03C0E6FF1C0E006EC90E9B
:1022A000E16E020EE26E0DC3E9FF0EC3EAFFEECF50
:1022B000E6FF0006FCE10BC390F20BC300F008D070
:1022C0000B4B0C2B19D7090E0201706FFE0E006E1E
:0222D0001200FA
:1022D2001C0E0201716F000E726F820E736F030E7D
:1022E200746FFF0E8C6FFF0E8D6FFF0E8E6FFF0EE1
:1022F2008F6F949AE751040A02E1948601D0949672
:102302009488C66AC79CC79EE751C612E951C61295
:10231200E851C712E95305E0EA51000AD8B4C78C64
:0C23220003D0EA53D8A4C78CC68A12006E
:10232E000900F5CFE6FF0006FBE10106F9E1120018
:10233E00060E0201E315006EE4C201F0000E011656
:10234E000050011003E1070E706F1ED2E951EA1121
:10235E0001E11AD2010E6F6FDE51020A02E1000E88
:10236E00DD1922E0000EDE1902E1000EDD1907E193
:10237E005950EA5D02E15850E95D01E315D0D7C22C
:10238E006BF3D8C26CF3D9C26DF3DAC26EF36F0E73
:10239E0003016F6F000E706F56EC02F0005204E0F6
:1023AE00100E0201706FF0D10201EB6BEC6BEA5173
:1023BE00EC5D02E1E951EB5DD8B012D16F0EDD2577
:1023CE00E16E000EDE21E26EEB51E725E96EEC5177
:1023DE00E821EA6EEECFE6FF010EDD25006E000E5F
:1023EE00DE21016E00C0DDF201C0DEF2DE51020A16
:1023FE0002E1000EDD19D8A4EFD0D7C26BF3D8C21C
:10240E006CF3D9C26DF3DAC26EF36F0E03016F6F08
:10241E00000E706FDAEC02F0005218E00201EB5180
:10242E00D125006EEC51D221016E000ED321026E29
:10243E00000ED421036E00C0D1F201C0D2F202C050
:10244E00D3F203C0D4F2050E706F9ED10201DD6B84
:10245E00DE6B010ED725006E000ED821016E000E28
:10246E00D921026E000EDA21036E00C0D7F201C030
:10247E00D8F202C0D9F203C0DAF2010EDB25006EEB
:10248E00000EDC21016E00C0DBF201C0DCF2DC517B
:10249E005B1802E15A50DB196AE1D5C25AF3D6C273
:1024AE005BF3C1EC08F000C0EDF201C0EEF201509A
:1024BE00FF0A02E1FF0E00182DE14EEC09F000C0FC
:1024CE00EDF201C0EEF20150FF0A02E1FF0E00181C
:1024DE000CE1DFC2D1F2E0C2D2F2E1C2D3F2E2C22B
:1024EE00D4F20A0E0201706F4FD1D5C25AF3D6C282
:1024FE005BF3EDC25CF3EEC25DF361EC0AF0EDC28C
:10250E005AF3EEC25BF3FF0E03015C6FFF0E5D6FBD
:10251E0061EC0AF0EDC2D5F2EEC2D6F20201DB6B2F
:10252E00DC6BD5C200F0D6C201F0000E026E036E57
:10253E00020E005E000E015A025A035A5AC004F0EF
:10254E005BC005F0000E066E076E07EC0AF06B50CE
:10255E0000266C5001226D5002226E50032200C0E4
:10256E00D7F201C0D8F202C0D9F203C0DAF2EB51B1
:10257E00E95D016EEC51EA59026E020E025C02E157
:10258E00000E015C29E2D7C26BF3D8C26CF3D9C23C
:10259E006DF3DAC26EF36F0E03016F6F000E706F84
:1025AE0056EC02F0005218E00201EB51D125006EFC
:1025BE00EC51D221016E000ED321026E000ED421F9
:1025CE00036E00C0D1F201C0D2F202C0D3F203C03A
:1025DE00D4F2100E706FD8D00201EB4BEC2BE7D675
:1025EE00DD51DE1115E0D7C26BF3D8C26CF3D9C240
:1025FE006DF3DAC26EF36F0E03016F6F000E706F24
:10260E00DAEC02F0005204E0050E0201706FBCD04D
:10261E000201E951D125016EEA51D221026E000E5E
:10262E00D321036E000ED421046E01C0D1F202C07C
:10263E00D2F203C0D3F204C0D4F20450E25D08E13A
:10264E000350E15D05E10250E05D02E10150DF5D06
:10265E0008E2D1C2DFF2D2C2E0F2D3C2E1F2D4C2BA
:10266E00E2F2C9C26BF3CAC26CF3CBC26DF3CCC239
:10267E006EF36F0E03016F6F000E706F56EC02F06B
:10268E00005204E0100E0201706F7ED002016F0E38
:10269E00CD25006E000ECE21016E00C0EFF201C0FE
:1026AE00F0F21C0E0024E16E000E0120E26EDFC27D
:1026BE00E6FF1C0EEF25006E000EF021016E010EDE
:1026CE000024E16E000E0120E26EE0C2E6FF1C0E59
:1026DE00EF25006E000EF021016E020E0024E16E59
:1026EE00000E0120E26EE1C2E6FF1C0EEF25006E29
:1026FE00000EF021016E030E0024E16E000E01208B
:10270E00E26EE2C2E6FF160EEF25E16E000EF0213C
:10271E00E26E8AC2E6FF160EEF25006E000EF02165
:10272E00016E010E0024E16E000E0120E26E8BC2DE
:10273E00E6FF180EEF25E16E000EF021E26E88C264
:10274E00E6FF180EEF25006E000EF021016E010E51
:10275E000024E16E000E0120E26E89C2E6FFC9C2BE
:10276E006BF3CAC26CF3CBC26DF3CCC26EF36F0EB9
:10277E0003016F6F000E706FDAEC02F0005204E08E
:0A278E00050E0201706F00D012006A
:10279800060E0201E315006EE4C201F0000E0116F8
:1027A8000050011003E1070E706F07D003014A6B58
:0C27B8004B6B4C6B4D6B69EC0DF012008C
:1027C4000201E351E41105E1070E706F010E006E82
:1027D4001FD0E36BE46B1C0E006E000E016E90C202
:1027E40004F0000E90BFFF0E056E7CEC01F0910E1C
:1027F4000024E16E020E0120E26E1C0E006EC90E72
:10280400E96E020EEA6EEECFE6FF0006FCE1006A16
:022814001200B0
:10281600060E0201E315006EE4C201F0000E011679
:102826000050011003E1070E706F0AD0DFC24AF3B1
:10283600E0C24BF3E1C24CF3E2C24DF369EC0DF09A
:0228460012007E
:1028480094EC14F00F0EC112956A836A020E02010D
:10285800E76FE86BE96B010EEA6F37DD290EE76F6A
:10286800000EE86F020EE96F800EEA6F58EC0FF069
:102878008FDF150E0201E76F000EE86F130EE96F88
:10288800000EEA6F58DDC3DF360E0201E76F000E57
:10289800E86F1A0EE96F000EEA6F4DDD8FDF838057
:1028A800040E0B6E0C0E0C6E330E0D6E0D2EFED735
:1028B8000C2EFCD70B2EFAD7000000008390040ED4
:1028C8000B6E0C0E0C6E330E0D6E0D2EFED70C2EED
:0E28D800FCD70B2EFAD700000000E1D7FFD787
:1029280010EE15F0410E006E010E016EE60EF66E09
:0E293800280EF76E000EF86E97EC11F01200EC
:1028E60054686973206973204D5946494C452E54E6
:0428F60058542E0004
:0D28FA004D5946494C4535352E5458540073
:10290700546869732069732074686520616464651D
:0A2917006420646174612E2E2E000E
:0129210000B5
:022922002E0085
:032924002E2E0054
:020000040030CA
:0D000100021F1EFF8181FF0FC00FE00F40A6
:00000001FF
