:1000000016EF01F00000000000EF00F0000000001B
:0A0010000000000000000000F3D71C
:06001C00000000001200CC
:100022000F0E0C6E470E0D6E0D2EFED70C2EFCD74A
:06003200000000001200B6
:0A003800210E0D6E0D2EFED71200F2
:1000420046BE02D08C9E01D08C8E46BC02D08C9CC7
:1000520001D08C8C46BA02D08C9A01D08C8A46B8D8
:1000620002D08C9801D08C883BB002D08D8401D014
:100072008D948D82D2DF8D9246B602D08C9E01D0B5
:100082008C8E46B402D08C9C01D08C8C46B202D0AD
:100092008C9A01D08C8A46B002D08C9801D08C8880
:1000A2003BB002D08D8401D08D948D82B6DF8D92CB
:0C00B2003BA002D0B5DF01D0BEDF120081
:0C00BE003B9045C046F0BEDF3B801200C6
:1000CA00446A44504224E96E000E4320EA6EEE521E
:1000DA000BE044504224E96E000E4320EA6EEECF54
:0A00EA0045F0E8DF442AEDD71200CC
:1000F400969296949598959A959C959E8D928D94AA
:100104008C9E8C9C8C9A8C988ADF89DF88DF8C8A01
:100114008C888D8281DF8D9282DF8D827DDF8D924E
:100124007EDF8D8279DF8D927ADF8C988D8274DF09
:100134008D9275DF8D8270DF8D928C9A8C8E8D827C
:100144006BDF8D926CDF8C9E8C888D8265DF8D9247
:100154008C988D8261DF8D9262DF8D825DDF8D925E
:100164008C888D8259DF8D925ADF8C988D8254DF72
:100174008D928C8E8C8C8C8A8C888D824DDF8D92A6
:060184004EDF3B8012007B
:10018A000900F5CFE6FF0006FBE10106F9E11200DE
:10019A00956A010E466E50DF3DC042F03EC043F004
:0801AA008FDFFF0E956E1200BD
:1001B2000FD0800E3D6E19D0C00E3D6E16D0940E3B
:1001C2003D6E13D0D40E3D6E10D0800E3D6E0DD01C
:1001D2003D50010AEEE03D50020AEEE03D50030AB6
:1001E200EEE03D50040AEEE0F0D73E04006E3D50D2
:1001F200002600C03DF000C046F022DF3B90416A7D
:1002020041503F24E96E000E4020EA6EEE520BE0B0
:1002120041503F24E96E000E4020EA6EEECF45F0D9
:0A0222004DDF412AEDD73B801200AA
:10022C00C2EC01F00F0EC112060EC16E966A956AF1
:10023C005BDF010E466EFFDE0C0E466EFCDE010E21
:10024C003D6E010E3E6E1D0E3F6E000E406EABDF1E
:10025C00FF0E816E936AFF0E956EFF0E836EFF0E7E
:10026C00956E819083CF3CF03CB006D0270E3D6E4E
:10027C00000E3E6E8CDF17D03CB206D01B0E3D6ECE
:10028C00000E3E6E84DF0FD03CB406D0150E3D6ED2
:10029C00000E3E6E7CDF07D03CB605D0170E3D6ECF
:1002AC00000E3E6E74DF8180819283CF3CF03CB0B7
:1002BC0006D0190E3D6E000E3E6E69DF17D03CB2B3
:1002CC0006D0350E3D6E000E3E6E61DF0FD03CB495
:1002DC0006D0370E3D6E000E3E6E59DF07D03CB691
:1002EC0005D0390E3D6E000E3E6E51DF8182819439
:1002FC0083CF3CF03CB006D0310E3D6E000E3E6E0E
:10030C0046DF17D03CB206D02B0E3D6E000E3E6E73
:10031C003EDF0FD03CB406D02D0E3D6E000E3E6E6F
:10032C0036DF07D03CB605D02F0E3D6E000E3E6E6C
:10033C002EDF8184020E0B6E040E0C6EBA0E0D6E47
:10034C000D2EFED70C2EFCD70B2EFAD7000089D71A
:02035C00FFD7C9
:1003840010EE15F0260E006E010E016E5E0EF66E76
:0E039400030EF76E000EF86EC5EC00F01200BE
:02035E00340069
:0203600031006A
:02036200300069
:02036400370060
:0A0366004B65797061642056310088
:040370003C2D2D00F3
:0203740039004E
:0203760036004F
:02037800330050
:04037A002D2D3E00E7
:02037E00380045
:02038000350046
:02038200320047
:020000040030CA
:0D000100021F1EFF8181FF0FC00FE00F40A6
:00000001FF
