:10000000F6EF03F00000000000EF00F00000000039
:0A0010000000000000000000F3D71C
:0A001C00210E0D6E0D2EFED712000E
:100026000F0E0C6E470E0D6E0D2EFED70C2EFCD746
:06003600000000001200B2
:06003C00000000001200AC
:100042000B6A0A6A096A086A0E6A0334083604509F
:10005200085E0550D8A0053C095E0650D8A0063CB3
:100062000A5E0750D8A0073C0B5EE86AD8A0010ED2
:100072000E5E0336070E0C6E0334083609360A3656
:100082000B360E36045003A012D0085E0550D8A0DD
:10009200053C095E0650D8A0063C0A5E0750D8A06F
:1000A200073C0B5EE86AD8A0010E0E5E11D008264E
:1000B2000550D8B0053C09260650D8B0063C0A26A1
:1000C2000750D8B0073C0B26E86AD8B0010E0E26BE
:1000D20003360C2ED1D70234083609360A360B36CF
:1000E2000E36045003A012D0085E0550D8A0053C7D
:1000F200095E0650D8A0063C0A5E0750D8A0073C0D
:100102000B5EE86AD8A0010E0E5E11D008260550DB
:10011200D8B0053C09260650D8B0063C0A2607503E
:10012200D8B0073C0B26E86AD8B0010E0E2602367C
:10013200070E0C6E0234083609360A360B360E36B6
:10014200045002A012D0085E0550D8A0053C095EFA
:100152000650D8A0063C0A5E0750D8A0073C0B5EAA
:10016200E86AD8A0010E0E5E11D008260550D8B05C
:10017200053C09260650D8B0063C0A260750D8B0DE
:10018200073C0B26E86AD8B0010E0E2602360C2E6A
:10019200D1D70134083609360A360B360E360450EA
:1001A20002A012D0085E0550D8A0053C095E065098
:1001B200D8A0063C0A5E0750D8A0073C0B5EE86A4E
:1001C200D8A0010E0E5E11D008260550D8B0053C0D
:1001D20009260650D8B0063C0A260750D8B0073C7C
:1001E2000B26E86AD8B0010E0E260136070E0C6EF9
:1001F2000134083609360A360B360E36045001A091
:1002020012D0085E0550D8A0053C095E0650D8A061
:10021200063C0A5E0750D8A0073C0B5EE86AD8A0ED
:10022200010E0E5E11D008260550D8B0053C0926F5
:100232000650D8B0063C0A260750D8B0073C0B2619
:10024200E86AD8B0010E0E2601360C2ED1D7003442
:10025200083609360A360B360E36045001A012D083
:10026200085E0550D8A0053C095E0650D8A0063CA1
:100272000A5E0750D8A0073C0B5EE86AD8A0010EC0
:100282000E5E11D008260550D8B0053C092606504E
:10029200D8B0063C0A260750D8B0073C0B26E86ABD
:1002A200D8B0010E0E260036070E0C6E003408364A
:1002B20009360A360B360E36045000A012D0085EFC
:1002C2000550D8A0053C095E0650D8A0063C0A5E3F
:1002D2000750D8A0073C0B5EE86AD8A0010E0E5E5C
:1002E20011D008260550D8B0053C09260650D8B0D2
:1002F200063C0A260750D8B0073C0B26E86AD8B05D
:10030200010E0E2600360C2ED1D700B00ED00450AE
:1003120008260550D8B0053C09260650D8B0063C40
:0C0322000A260750D8B0073C0B2612003A
:10032E0057BE02D08C9E01D08C8E57BC02D08C9CB6
:10033E0001D08C8C57BA02D08C9A01D08C8A57B8C7
:10034E0002D08C9801D08C882AB002D08D8401D036
:10035E008D948D826CDE8D9257B602D08C9E01D01C
:10036E008C8E57B402D08C9C01D08C8C57B202D09C
:10037E008C9A01D08C8A57B002D08C9801D08C8880
:10038E002AB002D08D8401D08D948D8250DE8D9254
:0C039E002AA002D041DE01D03ADE12009D
:1003AA00536A546A000E545C02E10A0E535C0BE273
:1003BA0053505124E16E54505220E26E200EE66EE4
:1003CA00534A542AEFD753505124E16E54505220C5
:1003DA00E26EE66A010E535E000E545A53505124DF
:1003EA00556E54505220566E0A0E046E000E056E5B
:1003FA00066E076E4DC000F04EC001F04FC002F00D
:10040A0050C003F019DE08C000F009C001F00AC0AC
:10041A0002F00BC003F0300E002655C0E1FF56C0B3
:10042A00E2FF00C0E6FF0A0E046E000E056E066EBD
:10043A00076E4DC000F04EC001F04FC002F050C030
:10044A0003F0FADD00C04DF001C04EF002C04FF0DB
:10045A0003C050F0000E046E031808E1045002189D
:10046A0005E10450011802E10050000A01E105D03B
:0C047A00010E535E000E545AB1D7120060
:0C0486002A904DC057F050DF2A80120071
:0C0492000E0E0D6E0D2EFED700001200A5
:10049E00C26A291C006E0050C116070EC012C08E13
:1004AE003FC000F000360090003600900050C2129F
:1004BE00C280E8DFC282C2A201D0FDD7C4CF01F054
:0E04CE00006AC3500012000E0112C29012000C
:0E04DC000D0EC11292808080928280821200EA
:1004EA000900F5CFE6FF0006FBE10106F9E112007B
:1004FA000FD0800E3F6E19D0C00E3F6E16D0940EEC
:10050A003F6E13D0D40E3F6E10D0800E3F6E0DD0CA
:10051A003F50010AEEE03F50020AEEE03F50030A64
:10052A00EEE03F50040AEEE0F0D74004006E3F5080
:10053A00002600C03FF000C057F0F4DE2A90436A5C
:10054A0043504124E96E000E4220EA6EEE520BE05F
:10055A0043504124E96E000E4220EA6EEECF4DF080
:0A056A008DDF432AEDD72A8012002E
:10057400969296949598959A959C959E8D928D9425
:100584008C9E8C9C8C9A8C984CDD4BDD4ADD8C8A3D
:100594008C888D8251DD8D9244DD8D824DDD8D926E
:1005A40040DD8D8249DD8D923CDD8C988D8244DD69
:1005B4008D9237DD8D8240DD8D928C9A8C8E8D826A
:1005C4003BDD8D922EDD8C9E8C888D8235DD8D9267
:1005D4008C988D8231DD8D9224DD8D822DDD8D927E
:1005E4008C888D8229DD8D921CDD8C988D8224DD92
:1005F4008D928C8E8C8C8C8A8C888D821DDD8D9254
:0606040010DD2A80120047
:10060A00FF0E2B6EFF0E2C6EFF0E2D6EFF0E2E6E42
:10061A00C26A291C006E0050C116070EC012C08E95
:04062A00C280120078
:10062E00476A486A3FC049F040C04AF041C04BF0AB
:10063E0042C04CF0800E4218006E800E005C08E145
:10064E00000E415C05E1000E405C02E1000E3F5CD5
:10065E0010E2010E476E000E486E496A4A6A4B6AF6
:10066E004C6A3F50495E40504A5A41504B5A425094
:10067E004C5A49C04DF04AC04EF04BC04FF04CC0E2
:10068E0050F043C051F044C052F088DE0B0E456E60
:10069E00000E466E000E006E4650005C02E14550A4
:1006AE00000819E245504324E16E46504420E26EA4
:1006BE00010E455C006E000E4658016E005043243C
:1006CE00E96E01504420EA6EEECFE6FF010E455E64
:1006DE00000E465ADFD743C0E1FF44C0E2FF200EB2
:1006EE00E66E475048101AE0456A466A4550432464
:1006FE00E96E46504420EA6EEE50200A03E1454A68
:10070E00462AF4D7010E455E000E465A4550432444
:0E071E00E16E46504420E26E2D0EE66E120093
:10072C00220E0C6E086A096A0A6A0B6A0C06D8B4A7
:10073C001FD0D8900B320A320932083203320232FF
:10074C0001320032D8A0F2D70C06D8B409D004502C
:10075C0008260550092206500A2207500B22EAD718
:10076C00045008260550092206500A2207500B2275
:02077C00120069
:10077E00416A426A3FC003F040C004F03FC005F03A
:10078E0040C006F003C0E9FF04C0EAFFEE50200AA5
:10079E0004E14150421001E110D0010E416E000EF5
:1007AE00426E03C0E9FF04C0EAFF05C0E1FF06C0C8
:1007BE00E2FFEECFE6FF054A062A03C001F004C0B1
:1007CE0002F0034A042A01C0E9FF02C0EAFFEE501C
:0E07DE00000AD8E13FC000F040C001F0120058
:1007EC007EEC04F075DEC0DE010E576E9ADD0C0E49
:1007FC00576E97DD010E3F6E010E406E1B0E416E63
:10080C00000E426E74DE150E0B6E4B0E0C6EBE0E91
:10081C000D6E0D2EFED70C2EFCD70B2EFAD700002A
:10082C00EEDE010E576E7DDD010E3F6E32DE00C036
:10083C002FF001C030F0000E316E326E010E3F6EA3
:10084C00010E406E150E416E000E426E50DE2FC032
:10085C0000F030C001F031C002F032C003F0880E5D
:10086C00046E130E056E000E066E076E59DF0A0E2F
:10087C00046E00C03FF001C040F002C041F003C064
:10088C0042F0045007E04232413240323F32429E45
:10089C00FF0FF8D7330E436E000E446EC2DE330EDC
:1008AC003F6E000E406E65DF010E3F6E060E406E11
:1008BC0000C041F001C042F01ADE0B0E0B6E260E8A
:1008CC000C6E5D0E0D6E0D2EFED70C2EFCD70B2E66
:0A08DC00FAD700000000A5D7FFD7EF
:1008FC0010EE15F0150E006E010E016EE60EF66E82
:0E090C00080EF76E000EF86E75EC02F0120089
:0608E6006D56203D2000CC
:0E08EC00566F6C74696D65746572207631000C
:0108FA0030CD
:020000040030CA
:0D000100021F1EFF8181FF0FC00FE00F40A6
:00000001FF
