:0400000076EF00F0A7
:1000080000C015F0F2A427D0C30E801618D021C066
:1000180083FF808A020E206E1ED022C083FF808854
:10002800030E206E18D023C083FF8086040E206E36
:1000380012D024C083FF8084010E206E0CD0205083
:10004800010AE5E02050020AE8E02050030AEBE04C
:100058002050040AEEE0FE0ED76E060ED66EF2941D
:0600680015C000F01100BC
:08006E00F28EF28CD08E12001C
:08007600F294F184F28A1200F9
:10007E00086A096A100E0C6E0134083609360450EF
:10008E00085E0550D8A0053C095ED8B007D00450D4
:10009E0008260550D8B0053C0926D8900036013602
:0600AE000C2EEAD712003F
:1000B400020ED56EFE0ED66E0C0ED76EF294D58E51
:0200C400120028
:1000C6000900F5CFE6FF0006FBE10106F9E11200A3
:1000D6000F0EC112926A806A956A836A9380818044
:0600E600938281821200EA
:1000EC003F0E166E060E176E5B0E186E4F0E196EC7
:1000FC00660E1A6E6D0E1B6E7D0E1C6E070E1D6E3F
:10010C007F0E1E6E6F0E1F6E010E206E256A266A04
:10011C00DCDFCADFA6DFA9DF81B016D0270E265C94
:10012C0002E10F0E255C10E2254A262A040E0B6E06
:10013C000C0E0C6E330E0D6E0D2EFED70C2EFCD746
:10014C000B2EFAD70000000081B21AD0000E006E00
:10015C002650005C02E12550000812E2010E255EDB
:10016C00000E265A040E0B6E0C0E0C6E330E0D6E1A
:10017C000D2EFED70C2EFCD70B2EFAD7000000004C
:10018C000A0E046E000E056E25C000F026C001F0AC
:10019C0070DF08C000F009C001F0160E0024E96EF3
:1001AC00000E0120EA6EEECF21F00A0E046E000E56
:1001BC00056E25C000F026C001F05BDF00C027F003
:1001CC0001C028F00A0E046E000E056E27C000F068
:1001DC0028C001F04EDF08C000F009C001F0160E77
:1001EC000024E96E000E0120EA6EEECF22F00A0E1A
:1001FC00046E000E056E27C000F028C001F039DF38
:10020C0000C027F001C028F00A0E046E000E056E27
:10021C0027C000F028C001F02CDF08C000F009C096
:10022C0001F0160E0024E96E000E0120EA6EEECFEE
:10023C0023F00A0E046E000E056E27C000F028C0D5
:10024C0001F017DF0A0E046E000E056E12DF08C0F7
:10025C0000F009C001F0160E0024E96E000E01201A
:10026C00EA6EEECF24F01A0E0C6EF80E0D6E0D2EFB
:0C027C00FED70C2EFCD700004FD7FFD798
:020000040030CA
:0D000100021F1EFF8181FF0FC00FE00F40A6
:00000001FF
