:0400000057EF00F0C6
:1000080000C015F0F2A427D0C30E801618D0660ED3
:10001800836E808A020E166E1ED04F0E836E808805
:10002800030E166E18D05B0E836E8086040E166E55
:1000380012D0060E836E8084010E166E0CD01650F8
:10004800010AE5E01650020AE8E01650030AEBE060
:100058001650040AEEE0FE0ED76E060ED66EF29427
:0600680015C000F01100BC
:10006E00020ED56EFE0ED66E0C0ED76EF294D58E97
:02007E0012006E
:08008000F28EF28CD08E12000A
:08008800F294F184F28A1200E7
:100090000900F5CFE6FF0006FBE10106F9E11200D9
:0E00A0000F0EC112926A806A956A836A12007E
:1000AE00010E166EF6DFDCDFE4DFE7DFFFD7FFD7EA
:020000040030CA
:0D000100021F1EFF8181FF0FC00FE00F40A6
:00000001FF
