:1000000015EF04F00000000000EF00F00000000019
:0A0010000000000000000000F3D71C
:0A001C00210E0D6E0D2EFED712000E
:100026000F0E0C6E470E0D6E0D2EFED70C2EFCD746
:06003600000000001200B2
:06003C00000000001200AC
:1000420068BE02D08C9E01D08C8E68BC02D08C9C83
:1000520001D08C8C68BA02D08C9A01D08C8A68B894
:1000620002D08C9801D08C8836B002D08D8401D019
:100072008D948D82E2DF8D9268B602D08C9E01D083
:100082008C8E68B402D08C9C01D08C8C68B202D069
:100092008C9A01D08C8A68B002D08C9801D08C885E
:1000A20036B002D08D8401D08D948D82C6DF8D92C0
:0C00B20036A002D0B7DF01D0B0DF120092
:1000BE000B6A0A6A096A086A0E6A03340836045023
:1000CE00085E0550D8A0053C095E0650D8A0063C37
:1000DE000A5E0750D8A0073C0B5EE86AD8A0010E56
:1000EE000E5E0336070E0C6E0334083609360A36DA
:1000FE000B360E36045003A012D0085E0550D8A061
:10010E00053C095E0650D8A0063C0A5E0750D8A0F2
:10011E00073C0B5EE86AD8A0010E0E5E11D00826D1
:10012E000550D8B0053C09260650D8B0063C0A2624
:10013E000750D8B0073C0B26E86AD8B0010E0E2641
:10014E0003360C2ED1D70234083609360A360B3652
:10015E000E36045003A012D0085E0550D8A0053C00
:10016E00095E0650D8A0063C0A5E0750D8A0073C90
:10017E000B5EE86AD8A0010E0E5E11D0082605505F
:10018E00D8B0053C09260650D8B0063C0A260750C2
:10019E00D8B0073C0B26E86AD8B0010E0E26023600
:1001AE00070E0C6E0234083609360A360B360E363A
:1001BE00045002A012D0085E0550D8A0053C095E7E
:1001CE000650D8A0063C0A5E0750D8A0073C0B5E2E
:1001DE00E86AD8A0010E0E5E11D008260550D8B0E0
:1001EE00053C09260650D8B0063C0A260750D8B062
:1001FE00073C0B26E86AD8B0010E0E2602360C2EEE
:10020E00D1D70134083609360A360B360E3604506D
:10021E0002A012D0085E0550D8A0053C095E06501B
:10022E00D8A0063C0A5E0750D8A0073C0B5EE86AD1
:10023E00D8A0010E0E5E11D008260550D8B0053C90
:10024E0009260650D8B0063C0A260750D8B0073CFF
:10025E000B26E86AD8B0010E0E260136070E0C6E7C
:10026E000134083609360A360B360E36045001A014
:10027E0012D0085E0550D8A0053C095E0650D8A0E5
:10028E00063C0A5E0750D8A0073C0B5EE86AD8A071
:10029E00010E0E5E11D008260550D8B0053C092679
:1002AE000650D8B0063C0A260750D8B0073C0B269D
:1002BE00E86AD8B0010E0E2601360C2ED1D70034C6
:1002CE00083609360A360B360E36045001A012D007
:1002DE00085E0550D8A0053C095E0650D8A0063C25
:1002EE000A5E0750D8A0073C0B5EE86AD8A0010E44
:1002FE000E5E11D008260550D8B0053C09260650D2
:10030E00D8B0063C0A260750D8B0073C0B26E86A40
:10031E00D8B0010E0E260036070E0C6E00340836CD
:10032E0009360A360B360E36045000A012D0085E7F
:10033E000550D8A0053C095E0650D8A0063C0A5EC2
:10034E000750D8A0073C0B5EE86AD8A0010E0E5EDF
:10035E0011D008260550D8B0053C09260650D8B055
:10036E00063C0A260750D8B0073C0B26E86AD8B0E0
:10037E00010E0E2600360C2ED1D700B00ED0045032
:10038E0008260550D8B0053C09260650D8B0063CC4
:0C039E000A260750D8B0073C0B261200BE
:0C03AA0036905EC068F048DE368012001D
:1003B600646A656A000E655C02E10A0E645C0BE223
:1003C60064506224E16E65506320E26E200EE66E94
:1003D600644A652AEFD764506224E16E6550632053
:1003E600E26EE66A010E645E000E655A645062248F
:1003F600666E65506320676E0A0E046E000E056E0B
:10040600066E076E5EC000F05FC001F060C002F0CD
:1004160061C003F051DE08C000F009C001F00AC057
:1004260002F00BC003F0300E002666C0E1FF67C085
:10043600E2FF00C0E6FF0A0E046E000E056E066EB1
:10044600076E5EC000F05FC001F060C002F061C0E0
:1004560003F032DE00C05EF001C05FF002C060F063
:1004660003C061F0000E046E031808E10450021880
:1004760005E10450011802E10050000A01E105D02F
:0C048600010E645E000E655AB1D7120032
:10049200506A010E826EF00E8214016E0150000A43
:1004A2000EE182CF00F00036009000C082FF502A99
:1004B2005050040A03E1010E826E506AECD7340EEA
:1004C2000C6EF10E0D6E0D2EFED70C2EFCD7000019
:1004D2000000100E026E0250000A0CE0025082145C
:1004E200016E0150000A01E005D0040E50260236CA
:1004F2000290F1D70F0E826EF00E8214016E01503F
:10050200000A01E0F9D7340E0C6EF10E0D6E0D2EBD
:10051200FED70C2EFCD70000000050C000F01200E5
:100522000900F5CFE6FF0006FBE10106F9E1120042
:10053200220E0C6E086A096A0A6A0B6A0C06D8B4A3
:100542001FD0D8900B320A320932083203320232FB
:1005520001320032D8A0F2D70C06D8B409D0045028
:1005620008260550092206500A2207500B22EAD714
:10057200045008260550092206500A2207500B2271
:02058200120065
:100584000FD0800E506E19D0C00E506E16D0940E3F
:10059400506E13D0D40E506E10D0800E506E0DD00D
:1005A4005050010AEEE05050020AEEE05050030AA7
:1005B400EEE05050040AEEE0F0D75104006E5050C3
:1005C400002600C050F000C068F039DD3690546A4F
:1005D40054505224E96E000E5320EA6EEE520BE0A2
:1005E40054505224E96E000E5320EA6EEECF5EF0B2
:0A05F400DADE542AEDD7368012003B
:1005FE00969296949598959A959C959E8D928D949B
:10060E008C9E8C9C8C9A8C9807DD06DD05DD8C8A81
:10061E008C888D820CDD8D92FFDC8D8208DD8D92B3
:10062E00FBDC8D8204DD8D92F7DC8C988D82FFDCF5
:10063E008D92F2DC8D82FBDC8D928C9A8C8E8D826B
:10064E00F6DC8D92E9DC8C9E8C888D82F0DC8D92AE
:10065E008C988D82ECDC8D92DFDC8D82E8DC8D92C5
:10066E008C888D82E4DC8D92D7DC8C988D82DFDCD9
:10067E008D928C8E8C8C8C8A8C888D82D8DC8D920F
:06068E00CBDC36801200F7
:10069400586A596A50C05AF051C05BF052C05CF0BD
:1006A40053C05DF0800E5318006E800E005C08E1AC
:1006B400000E525C05E1000E515C02E1000E505C3C
:1006C40010E2010E586E000E596E5A6A5B6A5C6A3B
:1006D4005D6A50505A5E51505B5A52505C5A5350A6
:1006E4005D5A5AC05EF05BC05FF05CC060F05DC0F4
:1006F40061F054C062F055C063F05BDE0B0E566EC1
:10070400000E576E000E006E5750005C02E156500A
:10071400000819E256505424E16E57505520E26EF9
:10072400010E565C006E000E5758016E00505424A2
:10073400E96E01505520EA6EEECFE6FF010E565EDB
:10074400000E575ADFD754C0E1FF55C0E2FF200E18
:10075400E66E585059101AE0566A576A5650542497
:10076400E96E57505520EA6EEE50200A03E1564ACE
:10077400572AF4D7010E565E000E575A5650542489
:0E078400E16E57505520E26E2D0EE66E12000B
:10079200526A536A50C003F051C004F050C005F0D1
:1007A20051C006F003C0E9FF04C0EAFFEE50200A80
:1007B20004E15250531001E110D0010E526E000EAE
:1007C200536E03C0E9FF04C0EAFF05C0E1FF06C0A3
:1007D200E2FFEECFE6FF054A062A03C001F004C09D
:1007E20002F0034A042A01C0E9FF02C0EAFFEE5008
:0E07F200000AD8E150C000F051C001F0120022
:10080000526A52505024E96E000E5120EA6EEE52A8
:100810000BE052505024E96E000E5120EA6EEECFEC
:0A0820005EF0C3DD522AEDD712008E
:10082A005CEC05F00F0EC112846A966A836AF00EB8
:10083A00956EE0DE010E686E21EC00F00C0E686E1B
:10084A0021EC00F0010E506E010E516E1A0E526E1E
:10085A00000E536E92DE376A486A496A4A6A4B6AE0
:10086A004C6A4D6A4E6A4F6A010E506E010E516E05
:10087A00250E526E000E536E80DE06DE00C037F083
:10088A0000500B0A01E125D0372A37500A0AD8B49A
:10089A00376A300E37245E6E83DD0A0E006E000E54
:1008AA00016E026E036E48C004F049C005F04AC0EA
:1008BA0006F04BC007F038DE37500024486E000EB1
:1008CA000120496E000E02204A6E000E03204B6E74
:1008DA00D4D7020E506E010E516E2B0E526E000EC0
:1008EA00536E4BDED1DD00C037F000500B0A01E138
:1008FA0025D0372A37500A0AD8B4376A300E372437
:10090A005E6E4EDD0A0E006E000E016E026E036E02
:10091A0048C004F049C005F04AC006F04BC007F0D1
:10092A0003DE375000244C6E000E01204D6E000E7F
:10093A0002204E6E000E03204F6ED4D7010E686E51
:10094A0021EC00F0010E506E010E516E310E526E06
:10095A00000E536E12DE98DD00C037F0010E686E8D
:10096A0021EC00F0010E506E010E516E150E526E02
:10097A00000E536E02DE53D04C504824446E4D5044
:10098A004920456E4E504A20466E4F504B20476EC6
:10099A0052D048C044F049C045F04AC046F04BC066
:1009AA0047F04C50445E4D50455A4E50465A4F50AF
:1009BA00475A41D048C000F049C001F04AC002F08D
:1009CA004BC003F04CC004F04DC005F04EC006F019
:1009DA004FC007F0A9DD00C044F001C045F002C0D5
:1009EA0046F003C047F027D04CC004F04DC005F0D4
:1009FA004EC006F04FC007F048C000F049C001F0F1
:100A0A004AC002F04BC003F05FEC00F000C044F0B3
:100A1A0001C045F002C046F003C047F00CD0375081
:100A2A000C0AAAE037500D0AB4E037500E0AC2E0A9
:100A3A0037500F0AD9E044C050F045C051F046C0C3
:100A4A0052F047C053F0380E546E000E556E1DDE3C
:100A5A00380E506E000E516E97DE00C050F001C085
:100A6A0051F0C9DE330E0B6EBB0E0C6EDF0E0D6E2F
:100A7A000D2EFED70C2EFCD70B2EFAD70000000045
:0C0A8A00010E686E21EC00F0E6D6FFD7EC
:100AB80010EE15F0210E006E010E016E960EF66E08
:0E0AC8000A0EF76E000EF86E91EC02F01200AE
:050A96005265733D00F4
:0B0A9B0043414C43554C41544F520066
:060AA6004E6F313A200002
:060AAC004E6F323A2000FB
:050AB2004F703A200026
:020000040030CA
:0D000100021F1EFF8381FF0FC00FE00F40A4
:00000001FF
