:04000000D4EF00F049
:1000080000C018F00BC017F00CC016F00DC015F0AA
:10001800A1A414D02F6A23C030F064D80B0E0B6E45
:10002800260E0C6E5D0E0D6E0D2EFED70C2EFCD717
:100038000B2EFAD700000000A19429D0F2A427D0F3
:10004800C30E801618D026C083FF808A020E256E44
:100058001ED027C083FF8088030E256E18D028C0C5
:1000680083FF8086040E256E12D029C083FF80840A
:10007800010E256E0CD02550010AE5E02550020A34
:10008800E8E02550030AEBE02550040AEEE0FE0EF6
:10009800D76E060ED66EF29418C000F017C00BF09B
:0A00A80016C00CF015C00DF0110099
:1000B2001E0ED26E0B0E0B6E260E0C6E5D0E0D6EAC
:1000C2000D2EFED70C2EFCD70B2EFAD70000000007
:0200D20012001A
:0800D400A194A284A084120093
:1000DC00A69C2EC0A9FFA69EA680A8CF00F0120059
:1000EC00A6A202D00000FCD7A69C2FC0A9FF30C04E
:1000FC00A8FFA69EA684F2CF00F0F29E550EA76E26
:10010C00AA0EA76EA68200BE02D0F29E01D0F28E7D
:0E011C00A694A1B802D00000FCD7A198120052
:10012A00086A096A100E0C6E013408360936045042
:10013A00085E0550D8A0053C095ED8B007D0045027
:10014A0008260550D8B0053C0926D8900036013655
:06015A000C2EEAD7120092
:08016000F294F184F28A12000E
:100168000F0EC112926A806A956A836A93808180B1
:0601780093828182120057
:10017E000900F5CFE6FF0006FBE10106F9E11200EA
:08018E00F28EF28CD08E1200FB
:10019600020ED56EFE0ED66E0C0ED76EF294D58E6E
:0201A600120045
:1001A8003F0E196E060E1A6E5B0E1B6E4F0E1C6EFE
:1001B800660E1D6E6D0E1E6E7D0E1F6E070E206E76
:1001C8007F0E216E6F0E226E236A246A010E256E41
:1001D800C7DFDDDFD8DFC0DF79DF67DF2E6A7ADFD0
:1001E80000C023F0000E246E81B01ED0270E245CC0
:1001F80002E10F0E235C18E2010E2324006E000EAC
:100208002420016E00C023F001C024F0040E0B6E00
:100218000C0E0C6E330E0D6E0D2EFED70C2EFCD769
:100228000B2EFAD70000000081B220D0000E006E1D
:100238002450005C02E12350000818E2010E235C00
:10024800006E000E2458016E00C023F001C024F097
:10025800040E0B6E0C0E0C6E330E0D6E0D2EFED7AB
:100268000C2EFCD70B2EFAD70000000023C02AF072
:1002780024C02BF00A0E046E000E056E2AC000F092
:100288002BC001F04EDF08C000F009C001F0190EC4
:100298000024E96E000E0120EA6EEECF26F00A0E69
:1002A800046E000E056E2AC000F02BC001F039DF85
:1002B80000C02CF001C02DF02CC02AF02DC02BF06E
:1002C8000A0E046E000E056E2CC000F02DC001F061
:1002D80028DF08C000F009C001F0190E0024E96EFB
:1002E800000E0120EA6EEECF27F00A0E046E000E13
:1002F800056E2CC000F02DC001F013DF00C02CF0FB
:1003080001C02DF02CC02AF02DC02BF00A0E046E6F
:10031800000E056E2CC000F02DC001F002DF08C0F1
:1003280000F009C001F0190E0024E96E000E01204A
:10033800EA6EEECF28F00A0E046E000E056E2CC091
:1003480000F02DC001F0EDDE00C02CF001C02DF052
:100358002CC02AF02DC02BF00A0E046E000E056E7C
:100368002CC000F02DC001F0DCDE08C000F009C090
:1003780001F0190E0024E96E000E0120EA6EEECF9E
:1003880029F00A0E046E000E056E2CC000F02DC078
:1003980001F0C7DE00C02AF001C02BF01A0E0C6E67
:1003A800F80E0D6E0D2EFED70C2EFCD700001CD7B4
:0203B800FFD76D
:020000040030CA
:0D000100021D1EFF8181FF0FC00FE00F40A8
:0200000400F00A
:10000000FFFFFFFFFFFFFFFFFFFFFFFFFFFFFFFF00
:10001000FFFFFFFFFFFFFFFFFFFFFFFFFFFFFFFFF0
:10002000FFFFFFFFFFFFFFFFFFFFFFFFFFFFFFFFE0
:10003000FFFFFFFFFFFFFFFFFFFFFFFFFFFFFFFFD0
:10004000FFFFFFFFFFFFFFFFFFFFFFFFFFFFFFFFC0
:10005000FFFFFFFFFFFFFFFFFFFFFFFFFFFFFFFFB0
:10006000FFFFFFFFFFFFFFFFFFFFFFFFFFFFFFFFA0
:10007000FFFFFFFFFFFFFFFFFFFFFFFFFFFFFFFF90
:10008000FFFFFFFFFFFFFFFFFFFFFFFFFFFFFFFF80
:10009000FFFFFFFFFFFFFFFFFFFFFFFFFFFFFFFF70
:1000A000FFFFFFFFFFFFFFFFFFFFFFFFFFFFFFFF60
:1000B000FFFFFFFFFFFFFFFFFFFFFFFFFFFFFFFF50
:1000C000FFFFFFFFFFFFFFFFFFFFFFFFFFFFFFFF40
:1000D000FFFFFFFFFFFFFFFFFFFFFFFFFFFFFFFF30
:1000E000FFFFFFFFFFFFFFFFFFFFFFFFFFFFFFFF20
:1000F000FFFFFFFFFFFFFFFFFFFFFFFFFFFFFFFF10
:00000001FF

