:1000000004EF01F00000000000EF00F0000000002D
:0A0010000000000000000000F3D71C
:10001C000F0E0C6E470E0D6E0D2EFED70C2EFCD750
:06002C00000000001200BC
:06003200000000001200B6
:0A003800210E0D6E0D2EFED71200F2
:100042005ABE02D08C9E01D08C8E5ABC02D08C9C9F
:1000520001D08C8C5ABA02D08C9A01D08C8A5AB8B0
:1000620002D08C9801D08C8852B002D08D8401D0FD
:100072008D948D82DDDF8D925AB602D08C9E01D096
:100082008C8E5AB402D08C9C01D08C8C5AB202D085
:100092008C9A01D08C8A5AB002D08C9801D08C886C
:1000A20052B002D08D8401D08D948D82C1DF8D92A9
:0C00B20052A002D0B2DF01D0BEDF12006D
:0C00BE00529059C05AF0BEDF5280120070
:1000CA00969296949598959A959C959E8D928D94D4
:1000DA008C9E8C9C8C9A8C989CDF9BDF9ADF8C8AF6
:1000EA008C888D82A1DF8D9294DF8D829DDF8D9227
:1000FA0090DF8D8299DF8D928CDF8C988D8294DFD0
:10010A008D9287DF8D8290DF8D928C9A8C8E8D8274
:10011A008BDF8D927EDF8C9E8C888D8285DF8D921F
:10012A008C988D8281DF8D9274DF8D827DDF8D9236
:10013A008C888D8279DF8D926CDF8C988D8274DF4A
:10014A008D928C8E8C8C8C8A8C888D826DDF8D92B0
:06015A0060DF528012007C
:100160000900F5CFE6FF0006FBE10106F9E1120008
:10017000060E0B6E130E0C6EAD0E0D6E0D2EFED711
:0E0180000C2EFCD70B2EFAD700000000120048
:10018E000FD0800E546E19D0C00E546E16D0940E31
:10019E00546E13D0D40E546E10D0800E546E0DD0FB
:1001AE005450010AEEE05450020AEEE05450030A95
:1001BE00EEE05450040AEEE0F0D75504006E5450B1
:1001CE00002600C054F000C05AF034DF5290586A36
:1001DE0058505624E96E000E5720EA6EEE520BE090
:1001EE0058505624E96E000E5720EA6EEECF59F0A5
:0A01FE005FDF582AEDD7528012008F
:100208008FEC01F00F0EC1125CDF010E5A6E15DF84
:100218000C0E5A6E12DF010E546E010E556E150E3D
:10022800566E000E576EAFDF020E546E040E556EFA
:10023800200E566E000E576EA6DF150E0B6E4B0E77
:100248000C6EBE0E0D6E0D2EFED70C2EFCD70B2E8F
:10025800FAD70000010E5A6EF0DE010E546E010E40
:10026800556E410E566E000E576E8DDF020E546E9F
:10027800010E556E2E0E566E000E576E84DF150E4B
:100288000B6E4B0E0C6EBE0E0D6E0D2EFED70C2E89
:10029800FCD70B2EFAD70000536A040E535C06E213
:1002A8001C0E5A6ECADE60DF532AF7D7536A080E4F
:1002B800535C06E2180E5A6EC0DE56DF532AF7D793
:1002C800536A080E535C06E21C0E5A6EB6DE4CDF0B
:0802D800532AF7D7EBD7FFD73B
:10031E0010EE15F03D0E006E010E016EE00EF66E43
:0E032E00020EF76E000EF86EB0EC00F012003A
:0B02E00057656C636F6D6520746F0044
:0E02EB004A756E676C6574726F6E696373009E
:1002F90050494331382D537465702D62792D7374CB
:030309006570001C
:10030C004A332070726573656E7473206E6F773A22
:01031C0000E0
:020000040030CA
:0D000100021F1EFF8181FF0FC00FE00F40A6
:00000001FF
